:020000040800F2
:1000000098090020ED010008A15D00085555000881
:100010009D5D0008B909000831700008000000006B
:10002000000000000000000000000000C5600008A3
:10003000850A000800000000A35D0008C7600008F2
:10004000070200080702000807020008070200086C
:10005000070200080702000807020008070200085C
:10006000070200080702000807020008BD0900088F
:10007000CD0900080702000807020008070200086F
:1000800007020008000000009108000807020008AD
:10009000070200080702000807020008070200081C
:1000A000556100080702000807020008070200085F
:1000B00007020008070200080702000807020008FC
:1000C00007020008070200080702000807020008EC
:1000D00007020008F56F0008070200080702000881
:1000E000870A000807020008070200080702000844
:1000F00007020008070200080702000800000000CD
:1001000000000000070200080000000007020008CD
:1001100007020008000000007961000807020008DB
:10012000070200080702000807020008070200088B
:10013000070200080000000000000000070200089D
:10014000070200080702000800000000000000008D
:10015000000000000000000000000000000000009F
:10016000000000000000000000000000070200087E
:10017000070200080000000000000000000000006E
:10018000000000000702000800000000000000005E
:10019000000000000000000000000000000000005F
:1001A000000000000000000007020008070200082D
:1001B000070200080702000807020008000000000C
:1001C000000000000702000800000000000000001E
:1001D0000702000807020008DFF80CD000F0AAFAB6
:1001E00000480047797400089809002006488047B5
:1001F00006480047FEE7FEE7FEE7FEE7FEE7FEE70C
:10020000FEE7FEE7FEE7FEE739610008D9010008D6
:100210002DE9F05F0546002092469B46884606463B
:10022000814640241BE0284641464746224600F0CE
:100230009BF953465A46C01A914110D311461846AD
:10024000224600F082F92D1A67EB01084F4622463C
:100250000120002100F079F917EB00094E41201E22
:10026000A4F10104DFDC484631462A464346BDE896
:10027000F09F40EA01039B0703D009E008C9121F61
:1002800008C0042AFAD203E011F8013B00F8013B50
:10029000521EF9D27047D2B201E000F8012B491E7C
:1002A000FBD270470022F6E710B513460A46044613
:1002B0001946FFF7F0FF204610BD2DE9FE4F80469E
:1002C00081EA0300C00F0C46009021F0004123F0AA
:1002D0000045B8EB0200A94105D2404621469046B0
:1002E0001C460B46024623F00040104347D0270D22
:1002F000C7F30A00C3F30A510290401A0190402844
:100300006BDAC3F3130040F4801B0098924620B1CF
:100310000023D2EB030A63EB0B0B01985946C0F1A3
:100320004002504600F011F906460D465046594627
:10033000019A00F029F910EB08006141002487EAD6
:10034000115284EAE7731A4340D0009A62B3019ACB
:10035000012A4FEA075215DC001B61EB02014FF046
:10036000004202EA0752CDE90042001C41F580112B
:1003700032462B4600F060F903B0BDE8F08F4046EE
:100380002146F9E7001B61EB0201001C41F58013D7
:1003900000185B412018A2F5001747EB030140EA63
:1003A000D570B6196D4111E06D084FEA360645EA81
:1003B000C0754FEA0752001B61EB0201001C41F5BA
:1003C000801149084FEA30000019514132462B464E
:1003D00003B0BDE8F04F00F020B9009801224000C2
:1003E0000023D0EB020263EBE073009821464FEA52
:1003F000E074B8EB000061EB0401E9E783F000432F
:100400005BE781F0004158E72DE9FE4F81EA0304E4
:1004100004F0004421F0004100944FF0000B23F061
:10042000004350EA01045ED052EA03045BD0C3F3F8
:100430000A54C1F30A552C44A4F2F3340194A0FBEE
:100440000254C1F3130141F48011C3F3130343F4C5
:10045000801301FB024400FB034E840A970A44EA1E
:10046000815447EA8357A4FB076802958D0A05FB70
:1004700007854FEA932C04FB0C542705029D4FEA95
:10048000065847EA1637B5EB08056EEB070C870EE2
:10049000920E47EA811742EA8312A7FB0201B6EBEC
:1004A0000B0164EB00042B0D43EA0C335E1844EBA4
:1004B0001C50DA465146E7FB0201C5F313044FEA2C
:1004C0000B3343EA14534FEA0432019C43EA060318
:1004D000A4F10C040294009CCDE900B400F0ACF847
:1004E00003B0BDE8F08F00200146F9E700F00042BC
:1004F00030F000400AD0C10D01F56071C0F3160064
:1005000042EA0151C20840071143704700200146EA
:10051000704701F0004330B421F0004150EA01027D
:1005200006D00A0DA2F56072C1F31301002A02DCA5
:1005300030BC00207047440F44EAC104C100E018F9
:1005400030BC00EBC25000F031B8202A04DB203A66
:1005500000FA02F1002070479140C2F1200320FA16
:1005600003F3194390407047202A04DB203A21FA14
:1005700002F00021704721FA02F3D040C2F12002BC
:100580009140084319467047202A06DBCB17203AD2
:1005900041FA02F043EAE07306E041FA02F3D04088
:1005A000C2F1200291400843194670470029A8BFB4
:1005B0007047401C490008BF20F00100704710B48C
:1005C000B0FA80FC00FA0CF050EA010404BF10BC41
:1005D000704749B1CCF1200421FA04F411FA0CF16E
:1005E00018BF012121430843A3EB0C01CB1D4FEAA7
:1005F00000614FEA102042BF002010BC704700EBA2
:10060000C35010440029A4BF10BC7047401C4900CF
:1006100008BF20F0010010BC704710B5141E73F124
:10062000000408DA401C41F1000192185B411A43B2
:1006300001D120F0010010BD2DE9F04D92469B46FE
:1006400011B1B1FA81F202E0B0FA80F220329046A4
:10065000FFF77BFF04460F4640EA0A0041EA0B0120
:1006600053465A46084313D0114653EA010019D0A5
:10067000C8F140025046FFF777FF05460E46504648
:1006800059464246FFF761FF084305D0012004E0C8
:1006900020463946BDE8F08D0020054346EAE07665
:1006A0002C4337430A986305E40AA0EB08000022B4
:1006B000FD0A44EA47540A3002D500200146E9E722
:1006C000010510196941DDE9084500196941BDE8D6
:1006D000F04DA2E770B5044601F000450020054347
:1006E00004D14FF00045644265EB010103F0004581
:1006F000284305D118464FF00043524263EB0003F4
:10070000101B73EB010002D24FF0004009E082EAB7
:10071000040283EA01034FF000501A4301D14FF065
:10072000C0404FEA2062EFF3008162F31F6181F362
:10073000008870BD064C074D06E0E06840F00103FC
:1007400094E8070098471034AC42F6D3FFF748FD11
:100750005C8000087C8000089FED241AB5EE002A1A
:1007600047F658030021B7EE004AC0F6000320EE1A
:10077000010A30EE020ABDEEC01AB5EEC00A11EE53
:10078000100AF1EE10FA9FED1A1AB8BF013802EE06
:10079000100AB8EEC22A30EE420A9FED162A20EE69
:1007A000010ABDEEC01A11EE100A30EE021A02461E
:1007B000B1EB502F18BF002202EE102A03EB820388
:1007C000B1EB502F18BFB0EE410AB8EE421A93EDCC
:1007D000002A93ED013A30EE410A34EE401A20EE41
:1007E000030A21EE021A31EE000A704783F9223E15
:1007F00000000044000000C49FED221A47F6580391
:100800000021B7EE004AC0F6000320EE010ABDEE5B
:10081000C01AB5EEC00A11EE100AF1EE10FA9FED03
:100820001A1AB8BF013802EE100AB8EEC22A30EE2A
:10083000420A9FED162A20EE010ABDEEC01A11EE03
:10084000100A30EE021A0246B1EB502F18BF0022F8
:1008500002EE102A03EB8203B1EB502F18BFB0EE6B
:10086000410AB8EE421A93ED002A93ED013A30EEB8
:10087000410A34EE401A20EE030A21EE021A31EE4C
:10088000000A704783F9223E00000044000000C4C3
:1008900010B5024801F0DAFB10BD00009002002004
:1008A00070B50446206804F08FFE0646206804F008
:1008B00090FE98B396BB2068806800F00D00012878
:1008C0000AD1206881681A4A1140891C816000BFE2
:1008D00003202168086009E0E06D40F01000E06549
:1008E000206E40F001002066012070BD02F0B0F9DA
:1008F000054614E002F0ACF9401B02280FD920682D
:10090000806800F0010050B1E06D40F01000E0653B
:10091000206E40F0010020660120E6E705E0206837
:10092000806800F001000028E4D10020DDE700002D
:10093000C0FFFF7F70B50446206804F04AFE00281F
:1009400036D1206880681B49084048B1E06D40F00E
:100950001000E065206E40F001002066012070BDAF
:10096000206804F0F9FD02F073F905461AE02068EA
:1009700004F02FFE10B9206804F0EEFD02F068F9D3
:10098000401B02280ED92068006800F0010048B919
:10099000E06D40F01000E065206E40F00100206640
:1009A0000120DCE72068006800F001000028DED0AC
:1009B0000020D4E73F00008000BFFEE710B50248EA
:1009C00001F0E3FE10BD0000D404002010B5024881
:1009D00001F0DBFE10BD00003405002030B50E4DE7
:1009E0000468AC4201D20D4901E00C4920310B46AC
:1009F0000478083C1425B4FBF5F2446CA40803EB1E
:100A000084048464054C8034C46402F01F0501240E
:100A1000AC40046530BD00000804024000080240FC
:100A200001794A1E064B03EB82024265044A4032BA
:100A300082654A1E02F01F0301229A40C265704778
:100A40000009024030B5D0E913546C60446D14B114
:100A5000D0E916546C6090F8444004F01F0501245E
:100A6000AC40056C6C60046863608468102C04D131
:100A70000468A2600468E16003E00468A16004689F
:100A8000E26030BD704710B54FF4805001F0DCFFDC
:100A90004FF4005001F0D8FF4FF4804001F0D4FF34
:100AA00010BD704710B52DED028B0446D4ED040A3D
:100AB000B0EE600AFFF750FEB0EE408AD4ED040AB3
:100AC000B0EE600AFFF798FEF0EE408A94ED130A4C
:100AD00020EE080AD4ED120A08EEE00A84ED070AB7
:100AE00094ED130A20EE280AD4ED120A00EE880ACB
:100AF00084ED080ABDEC028B10BD000090ED0A0ADF
:100B0000D0ED0B0A70EE200A90ED090A9FED0B1A4A
:100B100020EE010A9FED0A1A00EEC10A80ED050AD7
:100B200090ED0A0AD0ED0B0A30EE600ADFED050AFF
:100B300020EE200A80ED060A70470000ABAA2A3F8B
:100B4000ABAAAA3E3ACD133F10B504467F21A06858
:100B500000F0A4FAA06800F0BDFE41F266006168F2
:100B60000864206803F0C0FC0C21206804F068F8D9
:100B70009FED1D2ADFED1D1A9FED1D1AF0EE080AEC
:100B8000B1EE040A032104F1500006F039FE9FED96
:100B9000162ADFED181AB0EE081ADFED170A9FEDDE
:100BA000170A032104F1BC0006F02AFE4FF47A7004
:100BB00001F034FF0021206804F042F80021206891
:100BC00003F08AFB0421206804F03AF8042120682D
:100BD00003F082FB0821206804F032F80821206825
:100BE00003F07AFB10BD000000000000ACC5A73682
:100BF0006F12033B6F12033C00007A4400803B45B8
:100C000010B52DED028B0446D4ED040AB0EE600A57
:100C1000FFF7A2FDF0EE408AD4ED040AB0EE600AC0
:100C2000FFF7EAFDB0EE408A94ED050A20EE280AAF
:100C3000D4ED060A00EE880A84ED0F0A94ED060A48
:100C400020EE280AD4ED050A00EEC80A84ED0E0A4B
:100C5000154890ED0F0AB1EE400A80ED0F0A90EDB5
:100C60000E0AB1EE400A80ED0E0A94ED110ADFED96
:100C70000F0A20EE200AD4ED0F0A9FED0D1A00EEA8
:100C8000810A84ED110A94ED100ADFED080A20EEC6
:100C9000200AD4ED0E0A9FED061A00EE810A84EDBB
:100CA000100ABDEC028B10BD080100203333733FE6
:100CB000CDCC4C3D10B52DED068B82B004466C4971
:100CC0000888C11700EB91718910A0EB8101B1BBBD
:100CD00094F8280101280FD194ED4D1AF0EE410A45
:100CE000E06890ED051AB0EE410A04F1500006F0FC
:100CF00085FC84ED4C0A2CE094F8280102281FD1D1
:100D000094ED4D1AF0EE410AE06890ED031AB8EE4A
:100D1000C11AB0EE410A04F1BC0006F06FFCF0EE1F
:100D200040AAE068D0ED050AB0EE600AF0EE6A0A6B
:100D300004F1500006F062FC84ED4C0A09E004E086
:100D400094ED4D0A84ED4C0A03E094ED4D0A84EDD8
:100D50004C0A94ED0F0ADFED470A70EEC09A94ED4D
:100D60004C0AD4ED0E0A30EE60AAD4F82C01D0ED76
:100D7000080A414890ED000A00EEA90AF2EE080ABE
:100D8000C0EE208AD4F82C01D0ED080A3B4890ED43
:100D9000000A00EE8A0AF2EE080A80EE208A68EE67
:100DA000A80AB0EE600A08EE080AB5EEC00AF1EE35
:100DB00010FA04DBF1EEC00ACDED010A04E0DFED2C
:100DC0002D0ACDED010A00BF9DED010ADFED2C0AD1
:100DD00080EE809A2B4890ED000AB4EEC09AF1EEB6
:100DE00010FA1AD228EE890AF0EE408A28EE090A93
:100DF000B0EE408A204890ED000ADFED230A20EE95
:100E0000200A80ED000A1D4890ED000ADFED1E0A61
:100E100020EE200A80ED000A1DE0D4F82C0190EDB0
:100E2000090ADFED1A0A60EE200A134890ED000A65
:100E300009EEA00A80ED000AD4F82C0190ED090A11
:100E4000DFED120A60EE200A0C4890ED000A0AEE6F
:100E5000200A80ED000AC4ED138A84ED128A94ED15
:100E60004D0A0B4880ED000A02B0BDEC068B10BDA8
:100E700008000020000000000C00002010000020EE
:100E8000575B313F04000020A4707D3F17B75138F5
:100E90006C00002010B52DED108B84B00446204668
:100EA000FFF700FE94ED070A10EE101A0846FFF750
:100EB0001DFB41EC1B0B9FED740B53EC102BFFF74C
:100EC000A3FA41EC1A0BFFF724FB08EE100A94ED8D
:100ED000080ADFED6F0A20EE200AF0EE408A38EEB5
:100EE000280AB0EE409A38EE680AF0EE408A18EE12
:100EF000900AFFF7FBFA41EC1B0B19EE100AFFF703
:100F0000F5FA41EC1D0B94ED070A10EE101A084695
:100F1000FFF7ECFA41EC1E0BB0EE4D1AF0EE6D1A35
:100F2000B0EE4E0AF0EE6E0A06F0DEF9B0EE40CA00
:100F3000F0EE60CAB0EE4B1AF0EE6B1A06F0D4F980
:100F4000B0EE40AAF0EE60AA18EE900AFFF7CEFAD3
:100F500041EC1B0B19EE100AFFF7C8FA41EC1D0B10
:100F600094ED070A10EE101A0846FFF7BFFA41EC9D
:100F70001E0BB0EE4D1AF0EE6D1AB0EE4E0AF0EE0A
:100F80006E0A06F0EBF9B0EE40CAF0EE60CAB0EEC1
:100F90004B1AF0EE6B1A06F0E1F98DED000B53ECF5
:100FA0001A2B9DED000B51EC100BFFF786F941EC6D
:100FB0001F0B9FED350B53EC102BFFF725FACDE9F6
:100FC00002019DED020B51EC100BFFF7A2FA08EEA7
:100FD000100A78EE090AB6EE001AB6EE000A00EE24
:100FE000810ADFED2C0A60EE200A9FED2B1A80EEBD
:100FF000810AF0EE000A80EE201ABCEEC10A10EE63
:10100000100A608678EE280AB6EE001AB6EE000ADC
:1010100000EE810ADFED1F0A60EE200A9FED1E1A26
:1010200080EE810AF0EE000A80EE201ABCEEC10AC2
:1010300010EE100AA08694ED070A70EE080AB6EECC
:10104000001AB6EE000A00EE810ADFED120A60EE29
:10105000200A9FED111A80EE810AF0EE000A80EE60
:10106000201ABCEEC10A10EE100A2086608E61685C
:101070004863208E61688863A08E6168C86304B08D
:10108000BDEC108B10BD0000000000000000E0BFB0
:10109000D7B35D3FA037204D00409C46F8B50446CD
:1010A0000D460020009000BF94F85800012801D19F
:1010B0000220F8BD012084F8580000BF2046FFF749
:1010C000EFFB06468EBBE06D20F4885040F0020036
:1010D000E065206881681B4A114005F0804242F0BB
:1010E00000421143816000BF13E00098401C009053
:1010F0001549009888420CD3E06D20F0020040F0C2
:101100001000E06500BF002084F8580000BF0120F7
:10111000CFE720688168C90F0029E6D1E06D20F093
:10112000020040F00100E06504E0FFE7E06D40F000
:101130001000E06500BF002084F8580000BF304672
:10114000B7E70000C0FFFF3F02DE04007047000069
:101150002DE9FC5F05460C46002001900090002719
:10116000686900B100BFFA49E068884200D000E039
:1011700000BF00BF95F85800012802D10220BDE849
:10118000FC9F012085F8580000BF686910B1206AF3
:1011900001281ED1606809284ED1A06A60B194F878
:1011A000280000F07C002168C1F3846140EA4120FE
:1011B000E16A40EA010703E02068C0F38460470267
:1011C0002868C06CE349084038432968C8646F66E2
:1011D00032E0A86E90B9216AA96600206866A06A0C
:1011E00050B1206A401E94F8281001F07C01084399
:1011F000E16A40EA010701E0206A471E207900F019
:101200001F010020884087432068C0F38460217953
:1012100001F01F0188400743A86E401EA866686E53
:1012200038436866A86E38B92868C06CC949084058
:10123000696E08432968C864286804F0B6F9D8B90B
:1012400094F8250070B994F82600400594F824100D
:1012500040EA01502968C96821F44011084329680F
:10126000C86009E02868C06820F4401094F826108F
:1012700040EA41502968C860286804F0BEF98246F7
:10128000286804F092F98146BAF1000F7ED1B9F1D5
:10129000000FFBD1A06A08B1E06A88B994F8250074
:1012A000012806D12868C06840F000702968C8602D
:1012B00017E02868C06820F000702968C86010E056
:1012C00094F82500012806D1E86D40F02000E8657B
:1012D0000120019005E02868C06820F000702968AE
:1012E000C86094F8300001280CD1606B40F0020017
:1012F000A16B08432968096921F4FF710843296833
:10130000086105E02868006920F00200296808618A
:10131000A068B0F1004F0AD121680022286804F0CB
:101320008EF94FF00041286804F0C5F908E0A26882
:101330002168286804F083F90021286804F0BBF9CB
:1013400060692968C968C1F3C101490000FA01F860
:101350002069042840D028682268216900F1600CC7
:101360000CEB8103D3F800C0DFF8ECB10CEA0B0CF6
:1013700002F0F84B4BF0004B4BEA080B4CEA0B0C1D
:10138000C3F800C000BF2868A26900E0CCE0216972
:1013900000F1600C0CEB8103D3F800C02CF0807CD2
:1013A0004CEA020CC3F800C000BF2868227F216904
:1013B000012A01D1520600E00022134600F1600C20
:1013C0000CEB8102D2F800C02CF0007C4CEA030C3C
:1013D000C2F800C000BFA7E00021286804F0D2F8DE
:1013E000C0F3120030B90021286804F0CBF8C0F334
:1013F000846007E00021286804F0C4F890FAA0F0A7
:10140000B0FA80F02168C1F3120119B92168C1F363
:10141000846104E0216891FAA1F1B1FA81F1884276
:1014200004D100221146286804F034F9012128680B
:1014300004F0A8F8C0F3120030B90121286804F0C4
:10144000A1F8C0F3846007E00121286804F09AF84D
:1014500090FAA0F0B0FA80F02168C1F3120119B936
:101460002168C1F3846104E0216891FAA1F1B1FA25
:1014700081F1884204D100220121286804F00AF990
:101480000221286804F07EF8C0F3120030B902216E
:10149000286804F077F8C0F3846007E00221286828
:1014A00004F070F890FAA0F0B0FA80F02168C1F36F
:1014B000120119B92168C1F3846104E0216891FA2D
:1014C000A1F1B1FA81F1884204D1002202212868F9
:1014D00004F0E0F80321286804F054F8C0F3120087
:1014E00030B90321286804F04DF8C0F3846007E0A8
:1014F0000321286804F046F890FAA0F0B0FA80F0D2
:101500002168C1F3120119B92168C1F3846104E0B3
:10151000216891FAA1F1B1FA81F1884204D1002247
:101520000321286804F0B6F8286804F057F800286A
:1015300072D12868E2682168054B9A420ED1D0F832
:10154000B030C1F3120C43EA0C03C0F8B0300DE028
:1015500000007F400040100400F0FF03D0F8B030DE
:10156000C1F3120C23EA0C03C0F8B03000BF794974
:10157000E068884250D12368C3F312031BB9236883
:10158000C3F3846304E0236893FAA3F3B3FA83F309
:101590005B1C03F01F03092B3FD82368C3F312031E
:1015A0001BB92368C3F3846304E0236893FAA3F3AD
:1015B000B3FA83F35B1C03F01F034FF0010C0CFA2A
:1015C00003FC2368C3F312031BB92368C3F38463CA
:1015D00004E0236893FAA3F3B3FA83F35B1C03F0EC
:1015E0001F034CEA836C2368C3F312031BB92368FF
:1015F000C3F3846304E0236893FAA3F3B3FA83F399
:101600005B1C03F01F0303EB43034FF0000B4BEA9B
:1016100003534CEA03033FE043E02368C3F31203A0
:101620001BB92368C3F3846304E0236893FAA3F32C
:10163000B3FA83F35B1C03F01F034FF0010C0CFAA9
:1016400003FC2368C3F312031BB92368C3F3846349
:1016500004E0236893FAA3F3B3FA83F35B1C03F06B
:101660001F034CEA836C2368C3F312031BB923687E
:10167000C3F3846304E0236893FAA3F3B3FA83F318
:101680005B1C03F01F030A3B03EB43034FF0007B9B
:101690004BEA03534CEA03031946A268286803F097
:1016A000CEFF2D492068084050B300BF2B4880680A
:1016B00000F0E07600BF2A492068884203D029491B
:1016C000206888421DD106F40000D0B92868B0F126
:1016D000A04F37D146F40001204803F0CAFF22484A
:1016E00000682249B0FBF1F0801C00EB4000800054
:1016F000009002E00098401E009000980028F9D168
:1017000020E01B49206888420CD106F0807048B95F
:1017100018492868884215D046F080710F4803F0B8
:10172000A8FF0FE01449206888420BD106F480001E
:1017300040B910492868884204D046F4800107481F
:1017400003F097FF00BF002085F8580000BF019804
:1017500015E5000000007F400000088000030050F5
:10176000000021C31000C0901C000020400D0300A9
:10177000000052C700010050000084CB10B50446A1
:101780004D4890F82901C8BB4B48D0F82C0180691E
:101790002168D1F8801008444749D1F82C1188619C
:1017A0004548D0F82C01C0692168D1F8841008445C
:1017B0004149D1F82C11C861404801780078401C9B
:1017C0003E4A1070C72919D13B48D0F82C018069D6
:1017D000C82190FBF1F03849D1F82C1188613648C6
:1017E000D0F82C01C069C82190FBF1F03249D1F842
:1017F0002C11C8610120304981F829012068D0F8F6
:1018000080002D49D1F82C118969401A00EE100A88
:10181000B8EEC00ADFED2A0A20EE200ADFED290A21
:1018200020EE200A244880ED0A0A2068D0F88400BF
:101830002149D1F82C11C969401A00EE100AB8EEFE
:10184000C00ADFED1F0A20EE200AF7EE000A20EEA4
:10185000200A194880ED0B0A90ED0A0AB1EE400A01
:10186000D0ED0B0A30EE600A80ED090A164803F04D
:1018700029FF154800881049D1F82C114969401AF0
:101880000D49D1F82C110978484300EE100AB8EE42
:10189000C00ADFED0E0A20EE200A074880ED040A98
:1018A000FFF72CF90448FFF7ABF90348FFF702FAFA
:1018B0000148FFF7EFFA10BD0801002014000020D6
:1018C000CC85D83C2784903F78020020EA0FC93AA3
:1018D000704700002DE9F041044600BF524880687F
:1018E00000F01F000546206803F05FFE10B10220E3
:1018F000BDE8F0812068C06800F000472068C06C37
:1019000000F4C07030B92FB9E06D40F02000E06500
:101910000120EDE700BF94F85800012801D1022012
:10192000E6E7012084F8580000BF2046FFF702F8E0
:101930000646002E70D1E06D00F4807020B1206E5C
:1019400020F00800206601E000202066E06D42F2F1
:101950000101884340F48050E065344920688842A2
:1019600002D14FF0A04000E020682168884200D0FA
:101970001DB9E06D20F48010E065602021680860EA
:1019800000BF002084F8580000BF2068C06800F441
:10199000001028B12068406840F4806021684860E9
:1019A000A06908280CD12068406820F02000216838
:1019B00048602068406840F04000216848600CE0C2
:1019C0002068406820F04000216848602068406836
:1019D00040F020002168486000BF00BF1349206824
:1019E000884202D14FF0A04000E020682168884280
:1019F00004D01DB1062D01D0072D07D1206803F0BA
:101A0000CAFD70B9206803F0D5FD0AE0E06D40F42E
:101A10008010E06505E0FFE700BF002084F8580073
:101A200000BF304664E70000000300500001005092
:101A3000704770472DE9F0439BB004460E464FF0C7
:101A40000008306800B100BF00BF94F858000128BA
:101A500003D102201BB0BDE8F083012084F85800B8
:101A600000BF0020179018902068B0F1A04F02D15D
:101A70003148009001E000200090009850B9E06DDE
:101A800040F02000E06500BF002084F8580000BF4F
:101A90000120DFE7009803F0B0FD0746206803F05F
:101AA000ACFDD8BBD7BB254D306800B394F83800E7
:101AB000716841EA4030A96821F460410843A86098
:101AC0004FF0A04003F08AFD81461B4803F086FDDD
:101AD00049EA0009B9F1000F27D1B168306808431D
:101AE000A96840F61F7291430843A8601DE0A868EA
:101AF00020F46040A8604FF0A04003F06FFD8146E5
:101B00000D4803F06BFD49EA0009B9F1000F0CD153
:101B1000A86840F61F718843A86006E0FFE7E06D03
:101B200040F02000E0654FF0010800BF002084F87D
:101B3000580000BF40468DE70001005000030050F0
:101B40002DE9F84F05460C464FF0000A00200090A2
:101B5000F749E068884200D000E000BF00BF95F878
:101B60005800012802D10220BDE8F88F012085F835
:101B7000580000BF286803F03BFD00287DD129688C
:101B8000D4E9002001F1300CC0F3012B0CEB8B03E6
:101B9000D3F800C000F01F0E4FF01F0B0BFA0EFB26
:101BA0002CEA0B0C00F01F0BC2F3846E0EFA0BFE36
:101BB0004CEA0E0CC3F800C000BF286803F018FD03
:101BC0008146286803F0ECFC8046B9F1000F64D12F
:101BD000B8F1000FFBD1A068B0F1004F0AD1216825
:101BE0000022286803F017FD4FF00041286803F039
:101BF0005CFD08E0A2682168286803F00CFD002164
:101C0000286803F052FD60692968C968C1F3C10101
:101C1000490000FA01F7206904283FD028682268AB
:101C2000216900F1600C0CEB8103D3F800C0DFF8F0
:101C300004B30CEA0B0C02F0F84B4BF0004B4BEAF0
:101C4000070B4CEA0B0CC3F800C000BF2868A26960
:101C5000216900F1600C0CEB8103D3F800C02CF07B
:101C6000807C4CEA020CC3F800C000BF2868227FC9
:101C70002169012A02D1520601E0C5E10022134682
:101C800000F1600C0CEB8102D2F800C02CF0007C5B
:101C90004CEA030CC2F800C000BFA7E0002128688E
:101CA00003F067FCC0F3120030B90021286803F08C
:101CB00060FCC0F3846007E00021286803F059FC51
:101CC00090FAA0F0B0FA80F02168C1F3120119B9BE
:101CD0002168C1F3846104E0216891FAA1F1B1FAAD
:101CE00081F1884204D100221146286803F0C7FC24
:101CF0000121286803F03DFCC0F3120030B9012136
:101D0000286803F036FCC0F3846007E001212868EE
:101D100003F02FFC90FAA0F0B0FA80F02168C1F334
:101D2000120119B92168C1F3846104E0216891FAB4
:101D3000A1F1B1FA81F1884204D100220121286881
:101D400003F09DFC0221286803F013FCC0F312008D
:101D500030B90221286803F00CFCC0F3846007E06E
:101D60000221286803F005FC90FAA0F0B0FA80F098
:101D70002168C1F3120119B92168C1F3846104E03B
:101D8000216891FAA1F1B1FA81F1884204D10022CF
:101D90000221286803F073FC0321286803F0E9FBA3
:101DA000C0F3120030B90321286803F0E2FBC0F34E
:101DB000846007E00321286803F0DBFB90FAA0F0C1
:101DC000B0FA80F02168C1F3120119B92168C1F39A
:101DD000846104E0216891FAA1F1B1FA81F18842AD
:101DE00004D100220321286803F049FC286803F08D
:101DF000F0FB002874D12868E26821684C4B9A42B5
:101E000008D1D0F8B030C1F3120C43EA0C03C0F88B
:101E1000B03007E0D0F8B030C1F3120C23EA0C0365
:101E2000C0F8B03000BF4249E068884258D123680A
:101E3000C3F312031BB92368C3F3846304E023686C
:101E400093FAA3F3B3FA83F35B1C03F01F03092B8C
:101E50003ED82368C3F312031BB92368C3F384631A
:101E600004E0236893FAA3F3B3FA83F35B1C03F053
:101E70001F034FF0010C0CFA03FC2368C3F3120399
:101E80001BB92368C3F3846304E0236893FAA3F3C4
:101E9000B3FA83F35B1C03F01F034CEA836C2368E3
:101EA000C3F312031BB92368C3F3846304E02368FC
:101EB00093FAA3F3B3FA83F35B1C03F01F0303EB62
:101EC00043034FF0000B4BEA03534CEA030344E097
:101ED0002368C3F3120323B92368C3F3846305E0C3
:101EE00040E0236893FAA3F3B3FA83F35B1C03F097
:101EF0001F034FF0010C0CFA03FC2368C3F3120319
:101F00001BB92368C3F3846304E0236893FAA3F343
:101F1000B3FA83F35B1C03F01F034CEA836C236862
:101F2000C3F3120343B92368C3F3846309E00000D9
:101F300000007F4000F0FF03236893FAA3F3B3FA95
:101F400083F35B1C03F01F030A3B03EB43034FF0D7
:101F5000007B4BEA03534CEA03031946A268286846
:101F600003F059FB2F492068084050B300BF2E48AA
:101F7000806800F0E07600BF2C492068884203D0DA
:101F80002B49206888421DD106F40000D0B928688A
:101F9000B0F1A04F3ED146F40001234803F063FBAB
:101FA000244800682449B0FBF1F0401C00EB4000DD
:101FB0008000009002E00098401E009000980028E9
:101FC000F9D127E01D49206888420CD106F08070C5
:101FD00048B91B49286888421CD046F080711248D5
:101FE00003F041FB16E017492068884212D106F43D
:101FF000800078B91249286888420BD046F48001E5
:10200000094803F030FB05E0E86D40F02000E8658A
:102010004FF0010A00BF002085F8580000BF50466D
:10202000A2E500000000088000030050000021C36A
:102030001000C0901C000020400D0300000052C79B
:1020400000010050000084CB704770472DE9F84F25
:102050000446002000902068056820684668C5484E
:1020600003F082FA074605F00200022811D106F0BB
:10207000020002280DD1E06D00F0100018B9E06DEB
:1020800040F40060E0652046FFF760F80220216818
:10209000086005F00400042803D106F004000428B9
:1020A00007D005F0080008285FD106F008000828CE
:1020B0005BD1E06D00F0100018B9E06D40F40070E5
:1020C000E065206803F09EFA002848D0AA492068FD
:1020D000884202D14FF0A04000E020682168884289
:1020E00004D01FB1052F01D0092F03D12068D0F8EB
:1020F0000C800AE0A0492068884202D14FF0A0403D
:1021000000E020688346DBF80C8008F40050B0F54E
:10211000005F24D02068006800F0080008281ED165
:10212000206803F065FA90B92068406820F00C0040
:1021300021684860E06D20F48070E065E06D00F497
:10214000805060B9E06D40F00100E06507E0E06DAF
:1021500040F01000E065206E40F00100206620464F
:10216000FFF772FF0C202168086005F0200020288E
:1021700003D106F02000202807D005F040004028B9
:1021800072D106F0400040286ED1E06D00F01000E2
:1021900018B9E06D40F40050E0652068C16C01F4AE
:1021A000C07109B9012100E000218A4600BF206802
:1021B00003F028FA814670492068884202D14FF026
:1021C000A04000E020682168884204D01FB1062F9B
:1021D00001D0072F03D12068D0F80C800AE06649AF
:1021E0002068884202D14FF0A04000E0206883467A
:1021F000DBF80C80BAF1000F30D008F0007028B185
:10220000B9F1000F2AD008F4005038BB20680068EC
:1022100000F04000402821D108F40010F0B92068F7
:1022200003F0BEF990B92068406820F06000216892
:102230004860E06D20F48050E065E06D00F480704F
:1022400060B9E06D40F00100E06507E0E06D40F04E
:102250001000E065206E40F0010020662046FFF788
:102260008DFA60202168086005F0800080280DD17B
:1022700006F08000802809D1E06D40F48030E065F0
:10228000204600F0AFF980202168086005F48070D6
:10229000B0F5807F0FD106F48070B0F5807F0AD151
:1022A000E06D40F40030E0652046FFF7C1FB4FF4DD
:1022B00080702168086005F40070B0F5007F0FD1D0
:1022C00006F40070B0F5007F0AD1E06D40F4802084
:1022D000E0652046FFF7ADFB4FF400702168086011
:1022E00005F0100010282AD106F01000102826D181
:1022F000E06B10B90120009010E047B100BF1D480D
:10230000806800F4604048B10120009006E0206839
:10231000C06800F0010008B1012000900098012879
:102320000AD1E06D40F48060E065206E40F002006C
:1023300020662046FFF789FE10202168086005F41A
:102340008060B0F5806F13D106F48060B0F5806FC7
:102350000ED1E06D40F48040E065206E40F0080052
:1023600020664FF48060216808602046FFF7B0FACD
:10237000BDE8F88F00030050000100502DE9F84F30
:1023800004464FF000090020009014B90120BDE878
:10239000F88F606920B194F82400012800D100BFB3
:1023A000E06D30B9204600F01FF90020206684F867
:1023B000580020688168C1F3407131B1206881689C
:1023C000814A1140816000BF00BF206803F00BF913
:1023D000B0B9206881687D4A114041F08051816028
:1023E00000BF7B4800687B49B0FBF1F0401C400017
:1023F000009002E00098401E009000980028F9D15B
:10240000206803F0F0F848B9E06D40F01000E06596
:10241000206E40F0010020664FF00109206803F0B3
:10242000E7F80646E06D00F0100000287CD1002E91
:10243000FCD1E06D20F4807040F00200E06520687F
:1024400003F0C7F8B0B94FF0A04003F0C2F88246DD
:10245000614803F0BEF84AEA000ABAF1000F09D158
:1024600060685E49896821F47C1101435B4A916090
:1024700000BF00BF607FE16B41EA4030E168084384
:10248000A168084394F8241040EA014594F8240018
:10249000012803D1208D401E45EA4045E06A28B15D
:1024A000A08D00F47870216B084305432068C06854
:1024B0004B49084028432168C8602068006920F023
:1024C0004060616B084321680861206803F090F860
:1024D0008046206803F064F80746B8F1000F50D139
:1024E000F7BB207F002141EA803194F8380041EAAF
:1024F00040052068C06844F20201884328432168EF
:10250000C860206988B12068006940F48030216883
:1025100008612068D0F8C0006FF30D0021690843FE
:102520002168C1F8C0000EE045E02068006920F491
:102530008030216808612068D0F8C0006FF30D007A
:102540002168C1F8C00094F84000012813D1606CE4
:1025500040F00101A06C0843E16C0843216D00E0EC
:102560000FE008432168096940F2FC729143084377
:102570002168086105E02068006920F001002168F9
:1025800008616069012809D12068006B20F00F0004
:10259000216A491E08432168086305E02068006B32
:1025A00020F00F0021680863E06D20F0020040F089
:1025B0000100E06505E0E06D40F01000E0654FF0DF
:1025C00001094846E3E60000C0FFFF5FC0FFFF7F50
:1025D0001C000020400D03000001005000030050CB
:1025E0000740F0FF7047000010B598B00446142172
:1025F00013A8FDF757FE442102A8FDF753FE2068FB
:10260000B0F1A04F37D14FF40040029080031190F9
:1026100002A800F08BFC08B1FEF743FA00BF174890
:10262000C06C40F400501549C8640846C06C00F402
:102630000050019000BF00BF00BF0846C06C40F0D2
:102640000100C8640846C06C00F00100019000BFA2
:1026500000BF0320139014900020159013A94FF091
:10266000904000F0FFF900220121122000F076FBDB
:10267000122000F05FFB18B010BD000000100240F7
:102680000146002091F82520022A03D00422CA63C3
:10269000012027E00A68126822F00E020B681A6017
:1026A0008A6C126822F480728B6C1A600A68126855
:1026B00022F001020B681A6091F8442002F01F0317
:1026C00001229A400B6C5A60D1E913325A604A6D6C
:1026D00042B14A6D126822F480724B6D1A60D1E9E2
:1026E00016325A60012281F8252000BF002281F8AD
:1026F000242000BF704770B50446002594F82500DB
:1027000002280BD00420E063012084F8250000BFDC
:10271000002084F8240000BF012534E02068006810
:1027200020F00E00216808602068006820F0010099
:1027300021680860A06C006820F48070A16C0860BB
:1027400094F8440000F01F0101208840216C48608B
:10275000D4E913104860606D40B1606D006820F4EA
:102760008070616D0860D4E916104860012084F81B
:10277000250000BF002084F8240000BFA06B10B12A
:102780002046A16B8847284670BD70B50446206C72
:1027900005682068066894F8440000F01F010420D2
:1027A00088402840E0B106F00400C8B12068006805
:1027B00000F0200028B92068006820F0040021689B
:1027C000086094F8440000F01F0104208840216C48
:1027D0004860206B002856D02046216B884752E085
:1027E00094F8440000F01F0102208840284018B3EC
:1027F00006F0020000B32068006800F0200040B935
:102800002068006820F00A0021680860012084F830
:10281000250094F8440000F01F0102208840216C3C
:10282000486000BF002084F8240000BFE06A50B375
:102830002046E16A884726E094F8440000F01F0132
:10284000082088402840F0B106F00800D8B1206880
:10285000006820F00E002168086094F8440000F041
:102860001F0101208840216C48600120E06384F84A
:10287000250000BF002084F8240000BF606B10B169
:102880002046616B884770BD70B504460CB90120C5
:1028900070BD2F49206888420BD22E492068401A0B
:1028A0001421B0FBF1F0800060642A4808382064ED
:1028B0000AE027492068401A1421B0FBF1F080009B
:1028C0006064234808382064022084F825002068CA
:1028D000056847F6F0708543D4E902010843216991
:1028E000084361690843A1690843E1690843216A13
:1028F00008430543206805602046FEF76FF8A0688E
:10290000B0F5804F01D1002060602079A16C086093
:10291000D4E913104860606860B16068042809D881
:102920002046FEF77DF80020616D0860D4E916109E
:10293000486003E000206065A065E0650020E0637A
:10294000012084F82500002084F8240000BF9FE7C0
:1029500008040240080002402DE9F04104460D46FB
:1029600016461F464FF0000800BF94F824000128C7
:1029700002D10220BDE8F081012084F8240000BFCC
:1029800094F8250001283FD1022084F8250000207A
:10299000E0632068006820F00100216808603B4681
:1029A000324629462046FEF74DF8206B30B12068AC
:1029B000006840F00E00216808600BE020680068A5
:1029C00020F00400216808602068006840F00A00D8
:1029D00021680860A06C006800F4803028B1A06C09
:1029E000006840F48070A16C0860606D28B1606D73
:1029F000006840F48070616D08602068006840F0F5
:102A000001002168086006E000BF002084F824006F
:102A100000BF4FF002084046ACE7000070B5044626
:102A200000F016F906462546681C10B104480068F7
:102A3000054400BF00F00CF9801BA842FAD370BD1A
:102A4000280000207047000010B5044604480068C4
:102A5000204020B1024804602046FFF7F3FF10BD7C
:102A60001404014078B502460B460021CAE0012655
:102A70008E401D6805EA0604002C73D01D7905F010
:102A80000305012D04D01D7905F00305022D13D196
:102A900090684E000325B540A8434E00DD68B54060
:102AA00028439060506801258D40A8431D79C5F3E7
:102AB00000158D40284350601D7905F00305032D56
:102AC00009D0D0684E000325B540A8434E009D684C
:102AD000B5402843D0601D7905F00305022D13D1C0
:102AE000CE0802F1200555F826004D07EE0E0F2501
:102AF000B540A8434E07F60E1D69B5402843CE08E1
:102B000002F1200545F8260010684E000325B54067
:102B1000A8431D7905F003054E00B5402843106019
:102B20005D6805F44035002D6BD000BF384D2D6E2B
:102B300045F00105364E356635462D6E05F001052A
:102B4000009500BF00BF4FEAB6358E0855F8260045
:102B50008D072E0F0F25B540A843B2F1904F02D13B
:102B600000251AE04DE02B4DAA4201D1012514E0C9
:102B7000294DAA4201D102250FE0284DAA4201D1D8
:102B800003250AE0264DAA4201D1042505E0254D82
:102B9000AA4201D1052500E006258E07360FB54073
:102BA0002843214D8E0845F82600204D2868A04373
:102BB0005D6805F4801505B120431C4D28602D1D6E
:102BC0002868A0435D6805F4001505B12043174D42
:102BD0002D1D2860154D2D1F2868A0435D6805F444
:102BE000003505B12043114D2D1F28602D1F286889
:102BF000A0435D6805F4803505B120430B4D083DC9
:102C00002860491C1D68CD40002D7FF430AF78BD91
:102C1000001002400004004800080048000C004872
:102C2000001000480014004808000140080401405A
:102C300010B5426921EA020302EA010443EA0443AF
:102C4000836110BD0AB1816100E0816270470000BC
:102C50000148006870470000200000200348006819
:102C600003490968084401490860704720000020B2
:102C70002800002010B50024032000F0ADF800204B
:102C800000F008F808B1012401E000F02FF8204618
:102C900010BD000070B50446002511480068D8B189
:102CA0000F4800684FF47A71B1FBF0F00D490968E4
:102CB000B1FBF0F6304601F016FA58B9102C07D2E5
:102CC00000222146501E00F049F80748046004E045
:102CD000012502E0012500E00125284670BD000025
:102CE000280000201C0000202400002008B500BFA0
:102CF0000F48006E40F001000D4908660846006E5E
:102D000000F00100009000BF00BF00BF0846806DCA
:102D100040F0805088650846806D00F0805000903B
:102D200000BF00BF052000F057F800F0F5F808BD1F
:102D3000001002400146084600280DDB00BF00BF1E
:102D400000F01F0301229A4043099B0003F1E02396
:102D5000C3F8002100BF00BF00BF70472DE9F05F3E
:102D600080460D46164604F0A3FA074639462A4621
:102D7000334601F00700C0F1070ABAF1040F02D987
:102D80004FF0040A01E0C0F1070AD14600F1040A3D
:102D9000BAF1070F02D24FF0000A01E0A0F1030AD6
:102DA000D4464FF0010A0AFA09FAAAF1010A0AEA1E
:102DB000020A0AFA0CFA4FF0010B0BFA0CFBABF10A
:102DC000010B0BEA030B4AEA0B042146404604F0D0
:102DD00077FABDE8F09F000000BF00F00702064B45
:102DE00019684FF6FF031940044B0B4343EA0221D5
:102DF000014B196000BF70470CED00E00000FA05C0
:102E000002468ABB4148006800F4C060B0F5806F9C
:102E10002BD13E488030006820F480703B4BC3F8D3
:102E200080001846006820F4C06040F4007018600C
:102E30003748006832235843364BB0FBF3F0411C4F
:102E400000E0491E3148406900F48060B0F5806FB1
:102E500001D10029F5D12D48406900F48060B0F51A
:102E6000806F51D10320704708E028488030006807
:102E700020F48070254BC3F8800045E0B2F5007F58
:102E80003AD12248006800F4C060B0F5806F2AD1C2
:102E90001E488030006840F480701C4BC3F88000EE
:102EA0001846006820F4C06040F4007018601848AC
:102EB000006832235843174BB0FBF3F0411C00E08D
:102EC000491E1248406900F48060B0F5806F01D15E
:102ED0000029F5D10D48406900F48060B0F5806F9D
:102EE00012D10320BFE709488030006840F48070A9
:102EF000064BC3F8800007E00448006820F4C06077
:102F000040F48060014B18600020ACE70070004086
:102F10001C00002040420F000348806840F48040BD
:102F20000149886070470000007000402DE9F843B7
:102F300004460027B846206800F40020B0F5002FB2
:102F400073D1B946D348806D00F0805078B900BF86
:102F5000D048806D40F08050CE4988650846806D2D
:102F600000F08050009000BF00BF4FF00109CA4838
:102F7000006840F48070C8490860FFF769FE0646A3
:102F800006E0FFF765FE801B022801D9032705E054
:102F9000C148006800F480700028F2D000BF002F04
:102FA00046D1BC489030006800F44075CDB1206C2B
:102FB000A84216D0B7489030006820F44075B54854
:102FC000D0F8900040F48030B249C1F89000084633
:102FD000D0F8900020F48030C1F890000846C0F886
:102FE000905005F00100A0B1FFF732FE064608E060
:102FF000FFF72EFE801B41F28831884201D903275A
:1030000006E0A4489030006800F002000028EFD0ED
:1030100000BF5FB99F489030006820F44070216C79
:1030200008439C49C1F8900003E00CE0B84600E07A
:10303000B846B9F1010F05D19648806D20F0805057
:103040009449886500BF207800F0010048B191489C
:103050008830006820F00300616808438D49C1F89A
:103060008800207800F00200022809D189488830C1
:10307000006820F00C00A16808438649C1F8880068
:10308000207800F00400042809D1824888300068C4
:1030900020F03000E16808437E49C1F888002078BC
:1030A00000F00800082809D17A488830006820F02C
:1030B000C000216908437749C1F88800207800F0F2
:1030C0002000202809D173488830006820F440602F
:1030D000616908436F49C1F88800207800F040001A
:1030E000402809D16B488830006820F44050A1691D
:1030F00008436849C1F88800207800F080008028E3
:1031000009D164488830006820F44040E1690843F0
:103110006049C1F88800208800F48070B0F5807F95
:1031200009D15C488830006820F44030216A0843A7
:103130005849C1F88800208800F40070B0F5007F7D
:1031400009D154488830006820F44020616A08435F
:103150005049C1F88800208800F48060B0F5806F85
:1031600013D14C488830006820F44010A16A08430D
:10317000484988310860A06AB0F5801F05D14548EC
:10318000C06840F480104349C860208800F40060A3
:10319000B0F5006F13D13F488830006820F440003C
:1031A000E16A08433B4988310860E06AB0F5800F66
:1031B00005D13848C06840F480103649C86020887E
:1031C00000F48050B0F5805F13D132488830006839
:1031D00020F04070216B08432E4988310860206B35
:1031E000B0F1807F05D12B48C06840F48010294998
:1031F000C860208800F40050B0F5005F13D1254866
:103200008830006820F04060616B084321498831B4
:103210000860606BB0F1006F05D11E48C06840F4D3
:1032200080101C49C860208800F48040B0F5804FB1
:1032300013D118488830006820F04060A16B084323
:10324000144988310860A06BB0F1006F05D11148B6
:10325000C06840F480100F49C860208800F4004026
:10326000B0F5004F13D10B488830006820F0405073
:10327000E16B0843074988310860E06BB0F1805F7B
:1032800005D10448C06840F480300249C860404617
:10329000BDE8F88300100240007000402DE9F041C5
:1032A00004460D464FF0000814B90120BDE8F08136
:1032B0007D48006800F00F00A8420ED27A480068EE
:1032C00020F00F002843784908600846006800F0A5
:1032D0000F00A84201D00120E8E7207800F00100AB
:1032E000002864D06068032823D17048006800F08B
:1032F000007008B90120D9E702F054FD06466C4879
:10330000864237D96948806800F0F00030B12078F3
:1033100000F0020002282DD1A06858BB63488068E5
:1033200020F0F00040F08000604988604FF0800895
:1033300020E06068022806D15C48006800F4003094
:1033400040B90120B2E75948006800F4806008B92C
:103350000120ABE700F0DEF806465548864209D961
:103360005248806820F0F00040F080004F498860AB
:103370004FF080084D48806820F0030061680843E2
:103380004A498860FFF764FC074608E0FFF760FCE5
:10339000C01B41F28831884201D9032086E74348A7
:1033A000806800F00C006168B0EB810FEED12078EE
:1033B00000F00200022820D1207800F00400042848
:1033C00005D13A48806840F4E06038498860207848
:1033D00000F00800082807D13448806820F46050C5
:1033E00040F4E060314988603048806820F0F000A7
:1033F000A16808432D49886008E0B8F1800F05D125
:103400002A48806820F0F000284988602648006833
:1034100000F00F00A84219D92348006820F00F00DF
:10342000284321490860FFF713FC074608E0FFF72F
:103430000FFCC01B41F28831884201D9032035E7D7
:103440001948006800F00F00A842F0D1207800F081
:103450000400042807D11548806820F4E060E16882
:10346000084312498860207800F00800082808D135
:103470000E48806820F46050216940EAC1000B4981
:10348000886000F047F809498968C1F30311094AC7
:10349000515C01F01F01C8400749086007480068F7
:1034A000FFF7F8FB02E70000002002400010024096
:1034B00000B4C404187800081C0000202400002078
:1034C00001480068704700001C00002000B5FFF7AD
:1034D000F7FF05498968C1F30221044A515C01F0F4
:1034E0001F01C84000BD00000010024028780008FD
:1034F00000B5FFF7E5FF05498968C1F3C221044A19
:10350000515C01F01F01C84000BD000000100240E6
:103510002878000870B5224DAD6805F00C05042D23
:1035200001D120483AE01E4DAD6805F00C05082D8C
:1035300001D11D4832E01A4DAD6805F00C050C2D87
:103540002BD1174DED6805F00304154DED68C5F35B
:1035500003156A1C022C0CD0032C09D1124DB5FBAB
:10356000F2F50F4EF668C6F3062605FB06F10AE0F3
:1035700000BF0C4DB5FBF2F5094EF668C6F3062602
:1035800005FB06F100BF00BF054DED68C5F34165C1
:103590006D1C6B00B1FBF3F000E0002070BD00007B
:1035A000001002400024F40000127A002DE9F843D4
:1035B000044614B90120BDE8F883207800F001002A
:1035C000002865D0FC48806800F00C07FA48C06805
:1035D00000F003060C2F01D1032E01D0082F0AD1D1
:1035E000F548006800F40030002851D060680028D9
:1035F0004ED10120DFE700BF6068B0F5803F06D103
:10360000ED48006840F48030EB4908601AE06068DB
:10361000B0F5A02F0BD1E848006840F48020E649BF
:1036200008600846006840F4803008600AE0E2481C
:10363000006820F48030E04908600846006820F403
:103640008020086000BF606888B1FFF701FB054675
:1036500006E0FFF7FDFA401B642801D90320AAE722
:10366000D548006800F400300028F2D010E0FFF7E1
:10367000EFFA054606E0FFF7EBFA401B642801D994
:10368000032098E7CC48006800F400300028F2D10D
:10369000207800F00200022860D1C748806800F05E
:1036A0000C07C548C06800F003060C2F01D1022E9C
:1036B00001D0042F18D1C048006800F4806018B110
:1036C000E06808B9012076E7BB48406820F0FE407A
:1036D000217C40EA0160B8494860B8480068FFF7BB
:1036E000D9FA18B3012066E7E06800B3B248006871
:1036F00040F48070B0490860FFF7AAFA054606E07A
:10370000FFF7A6FA401B022801D9032053E7AA4875
:10371000006800F480600028F2D0A748406820F0DC
:10372000FE40217C40EA0160A349486016E0A248BF
:10373000006820F48070A0490860FFF789FA054608
:1037400006E0FFF785FA401B022801D9032032E783
:103750009948006800F480600028F2D1207800F0D9
:103760000800082836D16069D0B1934894300068C9
:1037700040F001009049C1F89400FFF769FA05464E
:1037800006E0FFF765FA401B022801D9032012E783
:1037900089489430006800F002000028F1D019E058
:1037A00085489430006820F001008349C1F89400F6
:1037B000FFF74EFA054606E0FFF74AFA401B0228DB
:1037C00001D90320F7E67C489430006800F002003D
:1037D0000028F1D1207800F00400042872D14FF0C5
:1037E00000087548806D012121EA107078B100BF92
:1037F0007148806D40F080506F4988650846806D43
:1038000000F08050009000BF00BF4FF001086C48EE
:10381000006800F48070B0B96948006840F48070B6
:1038200067490860FFF714FA054606E0FFF710FA4B
:10383000401B022801D90320BDE66148006800F45E
:1038400080700028F2D000BFA068012808D15A4833
:103850009030006840F001005749C1F8900021E025
:10386000A06805280FD154489030006840F004004B
:103870005149C1F890000846D0F8900040F001008E
:10388000C1F890000EE04C489030006820F0010034
:103890004949C1F890000846D0F8900020F0040093
:1038A000C1F8900000BFA068A8B1FFF7D1F90546A4
:1038B00009E0FFF7CDF9401B41F28831884202D977
:1038C000032078E625E03C489030006800F00200D4
:1038D0000028EED013E0FFF7BBF9054608E0FFF73C
:1038E000B7F9401B41F28831884201D9032062E6D2
:1038F00031489030006800F002000028EFD1B8F1A4
:10390000010F05D12C48806D20F080502A49886530
:1039100000BF207800F02000202836D1A069D0B167
:1039200025489830006840F001002349C1F898000C
:10393000FFF78EF9054606E0FFF78AF9401B0228DB
:1039400001D9032037E61C489830006800F00200D7
:103950000028F1D019E018489830006820F00100E4
:103960001549C1F89800FFF773F9054606E0FFF71F
:103970006FF9401B022801D903201CE60E4898303D
:10398000006800F002000028F1D1E069002860D052
:103990000948806800F00C000C287FD0E0690228FC
:1039A00058D10548006820F0807003490860FFF78F
:1039B0004FF905460DE000000010024024000020F1
:1039C00000700040FFF744F9401B022801D9032092
:1039D000F1E54D48006800F000700028F2D1D4E90C
:1039E0000810401E41EA0011A06A41EA0021208E21
:1039F0000122C2EB500041EA40513420005DC2EB8D
:103A0000500041EA40612C20005D41EAC0603E491F
:103A1000C9683E4A114008433B49C86008460068EF
:103A200040F0807008600846C06840F08070C86050
:103A3000FFF70EF9054606E0FFF70AF9401B0228DA
:103A400001D90320B7E53048006800F00070002875
:103A5000F2D056E02C48006820F080702A490860B7
:103A60000846C06820F00300C8600846C0682849BE
:103A700008402549C860FFF7EBF8054607E00DE070
:103A8000FFF7E6F8401B022801D9032093E51E4802
:103A9000006800F000700028F2D132E0E0690128EF
:103AA00000D188E51848C66806F00301206A814203
:103AB00025D106F0F001606A401EB1EB001F1ED157
:103AC00006F4FE41A06AB1EB002F18D106F0784150
:103AD0002C20005DB1EBC06F11D106F4C001208E27
:103AE0000122C2EB5000B1EB405F08D106F0C0618B
:103AF0003420005DC2EB5000B1EB406F01D00120DB
:103B000059E5002057E50000001002400C809F019D
:103B1000FFFFEEFE70B504460CB9012070BD606A6F
:103B200038B96068B0F5827F00D105E00021E1611D
:103B300002E00021216161610021A16294F85D0031
:103B400028B9002084F85C00204600F061F80220CB
:103B500084F85D002068006820F04000216808605B
:103B6000E068B0F5E06F01D9002501E04FF4805521
:103B7000E068B0F5706F05D0E068B0F5E06F01D097
:103B80000021A162A08800F48270218901F404411F
:103B90000843217C01F002010843217D01F001016D
:103BA0000843218B01F400710843217F01F03801A3
:103BB00008432021095D01F080010843218D01F4B3
:103BC00000510843216808600421A06901EA1040FF
:103BD00094F8241001F01001084394F8341001F017
:103BE00008010843A18901F47061084305F480517C
:103BF0000843216848602068C06920F4006021689B
:103C0000C86100202066012084F85D00002085E75F
:103C100010B586B00446142101A8FCF743FB1749F0
:103C20002068884228D100BF1548006E40F48050BB
:103C3000134908660846006E00F48050009000BFEB
:103C400000BF00BF0846C06C40F00100C8640846D1
:103C5000C06C00F00100009000BF00BF6020019028
:103C6000022002900020039004900520059001A9F5
:103C70004FF09040FEF7F6FE06B010BD0030014058
:103C8000001002402DE9F8430446884616461D46BA
:103C90004FF000096068B0F5827F0DD1A06858B977
:103CA000042084F85D003346424641462046009594
:103CB00000F0BBF8BDE8F88300BF94F85C00012871
:103CC00001D10220F6E7012084F85C0000BFFEF776
:103CD000BFFF074694F85D00012802D04FF00209AB
:103CE00099E0B8F1000F00D016B94FF0010992E049
:103CF000042084F85D0000202066C4F84080A4F809
:103D00004460A4F84660A063A087E087E064206573
:103D1000E068B0F5E06F06D92068406820F4805074
:103D20002168486005E02068406840F480502168C0
:103D30004860A068B0F5004F0BD12068006820F003
:103D40004000216808602068006820F480402168F5
:103D500008602068006800F04000402805D0206816
:103D6000006840F0400021680860E068B0F5E06F4E
:103D700022D81CE02068806800F0010060B1206853
:103D8000007B216C0870206C401C2064B4F8460055
:103D9000401EA4F846000AE0FEF75AFFC01BA842E6
:103DA00001D3681C00B915B94FF0030933E0B4F82A
:103DB00046000028DED121E01CE02068806800F089
:103DC000010060B12068C068216C0880206C801CF4
:103DD0002064B4F84600401EA4F846000AE0FEF74E
:103DE00037FFC01BA84201D3681C00B915B94FF0BA
:103DF000030910E0B4F846000028DED13A4629460F
:103E0000204602F003F808B120202066206E08B199
:103E10004FF0010900BF012084F85D0000BF0020C1
:103E200084F85C0000BF484644E72DE9FF5F044684
:103E3000894692461D460E9E01200190002000906A
:103E400000BF94F85C00012803D1022004B0BDE853
:103E5000F09F012084F85C0000BFFEF7F9FE0746E2
:103E600094F85D00029060680390A846AB46029803
:103E700001280BD00398B0F5827F04D1A06810B957
:103E80000298042802D00220009022E1B9F1000F2C
:103E900003D0BAF1000F00D015B90120009018E14D
:103EA00094F85D00042802D0052084F85D0000200D
:103EB0002066C4F840A0A4F84650A4F84450C4F8C2
:103EC0003890E587A587E0642065E068B0F5E06F8D
:103ED00002D8BBF1010F06D92068406820F4805059
:103EE0002168486005E02068406840F480502168FF
:103EF00048602068006800F04000402805D0206835
:103F0000006840F0400021680860E068B0F5E06FAC
:103F10004ED9606810B1B8F1010F09D1A06B0088CB
:103F20002168C860A06B801CA063E08F401EE08702
:103F300036E02068806800F00200022810D1E08F8F
:103F400070B1019801280BD1A06B00882168C8606E
:103F5000A06B801CA063E08F401EE08700200190D2
:103F60002068806800F0010080B1B4F8460068B1B4
:103F70002068C068216C0880206C801C2064B4F824
:103F80004600401EA4F8460001200190FEF760FEA6
:103F9000C01BB04204D3701C10B10320009098E005
:103FA000E08F0028C5D1B4F846000028C1D185E0D3
:103FB000606810B1B8F1010F17D1E08F01280AD95C
:103FC000A06B00882168C860A06B801CA063E08F94
:103FD000801EE08709E0A06B007821680873A06B61
:103FE000401CA063E08F401EE08760E0206880688E
:103FF00000F0020002281ED1E08FE0B101980128F4
:1040000019D1E08F01280AD9A06B00882168C86007
:10401000A06B801CA063E08F801EE08709E0A06B8E
:10402000007821680873A06B401CA063E08F401EDD
:10403000E087002001902068806800F0010058B3FC
:10404000B4F8460040B3B4F84600012816D92068F9
:10405000C068216C0880206C801C2064B4F8460085
:10406000801EA4F84600B4F84600012812D8206843
:10407000406840F48050216848600BE02068007B75
:10408000216C0870206C401C2064B4F84600401E6F
:10409000A4F8460001200190FEF7DAFDC01BB042F3
:1040A00001D3701C00B916B90320009011E0E08F15
:1040B00000289BD1B4F84600002897D13A463146F3
:1040C000204601F0E4FE18B1012000902020206677
:1040D00000BF012084F85D0000BF002084F85C0070
:1040E00000BF0098B2E670B504462546681EB0F1E0
:1040F000807F01D301200FE0681E4FF0E02148616E
:104100000F214FF0FF3003F0DBF800204FF0E021EB
:10411000886107200861002070BD704770477047B4
:1041200010B50346002200BF93F83C00012801D1DE
:10413000022010BD012083F83C0000BF22F0FF00E8
:10414000CC6840EA040222F440708C6840EA040221
:1041500022F480604C6840EA040222F400600C689B
:1041600040EA040222F480500C6940EA040222F47E
:1041700000504C6940EA040222F480400C6B40EA93
:10418000040222F470200C8B40EA04421C4C186894
:10419000A04203D01B4C1868A04204D122F08050EA
:1041A000CC6940EA0402164C1868A04203D0154CB2
:1041B0001868A0421BD122F470000C8D40EA045212
:1041C00022F080700C6A40EA040222F000704C6A0F
:1041D00040EA04020A4C1868A04203D0094C18684F
:1041E000A04204D122F00050CC6A40EA04021868D0
:1041F000426400BF002083F83C0000BF00BF98E786
:10420000002C014000340140704701460868406DB1
:1042100040F400300A6850650020704770477047CE
:1042200030B502460B4600BF92F83C00012801D190
:10423000022030BD012082F83C0000BF022082F83D
:104240003D0010684168106884681D4D1068A842E0
:1042500003D01C4D1068A84203D121F470015868A6
:104260000143194801401868014310684160144D2A
:104270001068A84213D01068B0F1804F0FD0134DD2
:104280001068A8420BD0124D1068A84207D00D4DFF
:104290001068A84203D00F4D1068A84205D124F041
:1042A00080049868044310688460012082F83D000F
:1042B00000BF002082F83C0000BF00BFB9E700004B
:1042C000002C0140003401408FFFFFFD000400403E
:1042D000000800400040014070B504460D4615B985
:1042E00094F844000BE0042D02D14520005D06E067
:1042F000082D02D14620005D01E04720005D012825
:1043000001D0012070BD1DB9022084F844000EE0E8
:10431000042D03D102214520015508E0082D03D1C9
:1043200002214620015502E00221472001550422C6
:104330002946206801F097FF2068406C40F4004057
:104340002168486418492068884213D02068B0F179
:10435000804F0FD01549206888420BD0144920683F
:10436000884207D013492068884203D01249206848
:10437000884210D120688068104900EA0106062EA4
:104380000FD0B6F5803F0CD02068006840F00100E7
:104390002168086005E02068006840F0010021689D
:1043A00008600020AEE70000002C0140000400403F
:1043B00000080040003401400040014007000100B7
:1043C000704710B504460CB9012010BD94F83D00AB
:1043D00028B9002084F83C00204600F029F802208B
:1043E00084F83D00211D206801F0CEFE012084F8F4
:1043F000480000BF84F83E0001213F2001554020C5
:10440000015541200155422001554320015500BF6F
:1044100000BF012084F84400452001554620015585
:104420004720015500BF012084F83D000020CCE763
:1044300038B5044628492068884216D100BF27486D
:10444000006E40F40060254908660846006E00F4DE
:104450000060009000BF00BF002211461820FEF748
:104460007DFC1820FEF766FC34E01D492068884278
:1044700016D100BF1948806D40F0100017498865BB
:104480000846806D00F01000009000BF00BF0022C1
:1044900002213620FEF762FC3620FEF74BFC19E0C5
:1044A00010492068884215D100BF0C48006E40F4C6
:1044B00080300A4908660846006E00F4803000909B
:1044C00000BF00BF002211461820FEF747FC18204D
:1044D000FEF730FC38BD0000002C01400010024007
:1044E0000010004000400140014691F83D000128C5
:1044F00001D001207047022081F83D00184B086868
:10450000984213D00868B0F1804F0FD0154B08685F
:1045100098420BD0144B0868984207D0134B086898
:10452000984203D0124B0868984210D108688068FE
:10453000104B00EA0302062A0FD0B2F5803F0CD0E0
:104540000868006840F001000B68186005E0086822
:10455000006840F001000B6818600020CAE7000006
:10456000002C0140000400400008004000340140DD
:104570000040014007000100014691F83D0001287C
:1045800001D001207047022081F83D000868C06812
:1045900040F001000B68D860184B0868984213D0AF
:1045A0000868B0F1804F0FD0154B086898420BD0C7
:1045B000144B0868984207D0134B0868984203D000
:1045C000124B0868984210D108688068104B00EAC6
:1045D0000302062A0FD0B2F5803F0CD008680068AD
:1045E00040F001000B68186005E00868006840F0C2
:1045F00001000B6818600020C4E70000002C014097
:104600000004004000080040003401400040014028
:10461000070001002DE9F04104460D46002700BFC8
:1046200094F83C00012802D10220BDE8F08101206D
:1046300084F83C0000BF022084F83D0020688668B2
:104640003F48064026F47F46206886602868702828
:1046500024D00CDC00F00F01002964D100110728E0
:1046600061D2DFE800F05354555649353F00354AD2
:10467000811A90424FD009DCB0F5805F0DD0B0F5C3
:10468000005F18D0B0F1101F4DD143E0102943D086
:10469000202942D0502946D140E046E0D5E9021316
:1046A0006A68206801F0F0FD2068866846F07706A9
:1046B0002068866039E0D5E902136A68206801F055
:1046C000E3FD2068806840F48040216888602CE029
:1046D000EA686968206801F0C3FF5021206801F092
:1046E000DFFD22E0EA686968206801F0CCFF602104
:1046F000206801F0D5FD18E0EA686968206801F0DB
:10470000AFFF4021206801F0CBFD0EE000BF00BFED
:1047100000BF00BF00BF00BF00BF00BF2968206806
:1047200001F0BEFD01E0012700BF00BF012084F8B9
:104730003D0000BF002084F83C0000BF384674E70D
:1047400088FFCEFF20001000704710B50446206897
:104750000069C0F34000D8B12068C068C0F34000D1
:10476000B0B16FF002002168086101202077206855
:10477000806900F0030018B12046FFF7E5FF05E06F
:10478000204600F06BF9204600F059FA002020770F
:1047900020680069C0F38000D8B12068C068C0F309
:1047A0008000B0B16FF0040021680861022020771A
:1047B0002068806900F4407018B12046FFF7C4FFFC
:1047C00005E0204600F04AF9204600F038FA0020C3
:1047D000207720680069C0F3C000D8B12068C068A5
:1047E000C0F3C000B0B16FF0080021680861042078
:1047F00020772068C06900F0030018B12046FFF759
:10480000A3FF05E0204600F029F9204600F017FA42
:104810000020207720680069C0F30010D8B120681C
:10482000C068C0F30010B0B16FF0100021680861DB
:10483000082020772068C06900F4407018B1204635
:10484000FFF782FF05E0204600F008F9204600F05F
:10485000F6F9002020772068006900F0010058B1C7
:104860002068C06800F0010030B16FF001002168DD
:104870000861204600F08AFA20680069C0F3C01081
:1048800058B12068C068C0F3C01030B16FF080002C
:10489000216808612046FFF741FC20680069C0F3E9
:1048A000002058B12068C068C0F3C01030B16FF468
:1048B0008070216808612046FFF72FFC206800699E
:1048C000C0F3801058B12068C068C0F3801030B1C8
:1048D0006FF0400021680861204600F058FA206817
:1048E0000069C0F3401058B12068C068C0F34010A0
:1048F00030B16FF02000216808612046FFF70FFCFF
:1049000020680069C0F3005058B12068C068C0F347
:10491000005030B16FF48010216808612046FFF725
:104920007DFC20680069C0F3405058B12068C06821
:10493000C0F3405030B16FF4001021680861204688
:10494000FFF762FC20680069C0F3805058B120680E
:10495000C068C0F3805030B16FF4800021680861F6
:104960002046FFF75CFC20680069C0F3C05058B1D6
:104970002068C068C0F3C05030B16FF400002168F7
:1049800008612046FFF71CFD10BD000010B586B081
:104990000446142101A8FBF785FC2C4920688842B5
:1049A00051D100BF2A48C06C40F004002849C864B7
:1049B0000846C06C00F00400009000BF00BF00BFBC
:1049C0000846C06C40F00200C8640846C06C00F0A5
:1049D0000200009000BF00BF00BF0846C06C40F05E
:1049E0000100C8640846C06C00F00100009000BFE0
:1049F00000BF4FF40050019002200290002003906D
:104A000004900420059001A91248FEF72BF803201A
:104A1000019002200290002003900490062005904F
:104A200001A90D48FEF71EF84FF4E0600190022046
:104A300002900020039004900620059001A94FF0F9
:104A40009040FEF70FF806B010BD0000002C0140AA
:104A500000100240000800480004004870472DE99B
:104A6000F04104460D461646002700BF94F83C006E
:104A7000012802D10220BDE8F081012084F83C0029
:104A800000BF0C2E51D005DC4EB1042E1ED0082ED6
:104A90007AD133E0102E60D0142EF9D175E029467A
:104AA000206801F009FC2068806940F00800216856
:104AB00088612068806920F004002168886120688E
:104AC0008069296908432168886178E0294620685F
:104AD00001F048FC2068806940F40060216888612A
:104AE0002068806920F4806021688861206880697E
:104AF000296940EA01202168886160E02946206830
:104B000001F08AFC2068C06940F008002168C86193
:104B10002068C06920F004002168C8612068C0696D
:104B2000296908432168C86149E02946206801F0E5
:104B3000CDFC2068C06940F400602168C86120682D
:104B4000C06920F480602168C8612068C069296953
:104B500040EA01202168C86131E02946206801F05F
:104B60000FFD2068006D40F008002168086520688E
:104B7000006D20F00400216808652068006D296937
:104B80000843216808651AE017E02946206801F00B
:104B90002FFD2068006D40F40060216808652068E2
:104BA000006D20F48060216808652068006D296927
:104BB00040EA01202168086501E0012700BF00BF2D
:104BC00000BF002084F83C0000BF384653E710B512
:104BD00004460CB9012010BD94F83D0028B900200E
:104BE00084F83C00204600F029F8022084F83D00BB
:104BF000211D206801F0C8FA012084F8480000BF98
:104C000084F83E0001213F200155402001554120FC
:104C10000155422001554320015500BF00BF01202E
:104C200084F8440045200155462001554720015590
:104C300000BF012084F83D000020CCE7704770479A
:104C400070B504460D4615B994F83E0015E0042DE4
:104C500002D13F20005D10E0082D02D14020005D10
:104C60000BE00C2D02D14120005D06E0102D02D199
:104C70004220005D01E04320005D012801D00120B9
:104C800070BD1DB9022084F83E001AE0042D03D146
:104C900002213F20015514E0082D03D102214020BC
:104CA00001550EE00C2D03D102214120015508E0F1
:104CB000102D03D102214220015502E002214320A0
:104CC000015501222946206801F0BCFA27492068D5
:104CD00088420FD02649206888420BD02549206899
:104CE000884207D024492068884203D0234920689D
:104CF000884201D1012000E0002028B12068406CEA
:104D000040F400402168486418492068884213D064
:104D10002068B0F1804F0FD01949206888420BD02D
:104D200018492068884207D011492068884203D07A
:104D300010492068884210D120688068124900EA32
:104D40000106062E0FD0B6F5803F0CD02068006813
:104D500040F001002168086005E02068006840F02C
:104D600001002168086000208AE70000002C014053
:104D7000003401400040014000440140004801402F
:104D80000004004000080040070001007047704721
:104D9000014600BF91F88000012801D10220704730
:104DA000012081F8800000BF2420C1F88400086839
:104DB00002680868006820F001000B68186022F0A3
:104DC000005200204866086802602020C1F8840074
:104DD00000BF002081F8800000BF00BFDFE7704700
:104DE000704770B504460D4600BF94F88000012856
:104DF00001D1022070BD012084F8800000BF242072
:104E0000C4F88400206806682068006820F001006B
:104E1000216808602068806820F06060284321686D
:104E20008860204601F044FC206806602020C4F819
:104E3000840000BF002084F8800000BF00BFD9E7D5
:104E400070B504460D4600BF94F88000012801D1DA
:104E5000022070BD012084F8800000BF2420C4F827
:104E60008400206806682068006820F0010021683E
:104E700008602068806820F06040284321688860CE
:104E8000204601F015FC206806602020C4F884004C
:104E900000BF002084F8800000BF00BFD9E7704742
:104EA000704770472DE9F04704462068C5692068BF
:104EB00006682068876840F60F0005EA0009B9F126
:104EC000000F0FD105F0200060B106F0200010B9EE
:104ED00007F0805030B1206F10B12046216F884715
:104EE000BDE8F087B9F1000F7ED0CF48384018B93F
:104EF000CE4830400028F7D005F0010058B106F444
:104F0000807040B1012021680862D4F88C0040F024
:104F10000100C4F88C0005F0020058B107F0010050
:104F200040B1022021680862D4F88C0040F00400EF
:104F3000C4F88C0005F0040058B107F0010040B13E
:104F4000042021680862D4F88C0040F00200C4F804
:104F50008C0005F0080070B106F0200010B9B248CE
:104F6000384040B1082021680862D4F88C0040F035
:104F70000800C4F88C0005F4006060B106F08060A1
:104F800048B14FF4006021680862D4F88C0040F00A
:104F90002000C4F88C00D4F88C0000284ED005F016
:104FA000200050B106F0200010B907F0805020B169
:104FB000206F10B12046216F8847D4F88CA020685C
:104FC000806800F04000402802D00AF0280070B34A
:104FD000204601F0F5FC2068806800F04000402881
:104FE00021D100BF00BF00E029E02168083151E86D
:104FF000001F21F040002168083141E80002002A2A
:10500000F1D100BFE06F50B18948E16F8863E06F74
:10501000FDF771FB90B1E06F816B88470EE0204691
:10502000FFF73FFF0AE02046FFF73BFF06E0FFE700
:105030002046FFF736FF0020C4F88C0050E7E06EF2
:10504000012870D105F0100000286CD006F0100087
:105050000028FAD01020216808622068806800F0DB
:105060004000402860D1E06F006840681FFA80F877
:10507000B8F1000F56D0B4F85C00404552DDA4F8FA
:105080005E80E06F0068006800F02000F0BB00BFA9
:1050900000BF216851E8001F21F48070226842E8B7
:1050A00000010029F5D100BF00BF00BF2168083111
:1050B00051E8001F21F001002168083141E8000299
:1050C000002AF3D100BF00BF00BF2168083151E8BA
:1050D000001F21F040002168083141E80002002A49
:1050E000F3D100BF2020C4F888000020E06600BF94
:1050F00000BF216851E8001F21F01000226842E83B
:1051000000010029F5D100BFE06F00E001E0FDF7EC
:10511000B7FAB4F85C00B4F85E20801A81B2204679
:10512000FFF75DFEDCE641E034F85C0F6188401A71
:105130001FFA80F860885C3CB8B3B8F1000F34D037
:1051400000BF00BF216851E8001F21F49070226861
:1051500042E800010029F5D100BF00BF00BF21686F
:10516000083151E8001F304AD24301EA02002168A9
:10517000083141E80002002AF1D100BF2020C4F824
:1051800088000020E066206700BF00BF216851E86A
:10519000001F21F01000226842E800010029F5D12B
:1051A00000BF41462046FFF71AFE99E605F480103D
:1051B00050B107F4800038B14FF4801021680862C4
:1051C0002046FFF76DFE8BE605F0800058B106F033
:1051D000800010B907F4000028B1606F10B12046BC
:1051E000616F88477CE605F0400030B106F0400072
:1051F00018B1204601F01AFC72E605F4000030B147
:1052000006F0804018B12046FFF749FE68E605F039
:10521000807030B106F0004018B12046FFF7E0FD85
:105220005EE600BF5CE60000010000102001000403
:105230007768000810B504460CB9012010BDA069BC
:1052400000B100E000BFD4F8840028B9002084F841
:105250008000204600F02AF82420C4F8840020684A
:10526000006820F0010021680860204601F016FC6B
:10527000012800D1E2E7A06A10B1204601F044FA0B
:105280002068406820F49040216848602068806869
:1052900020F02A00216888602068006840F0010042
:1052A00021680860204601F0ABFAC7E710B598B056
:1052B0000446142113A8FAF7F5FF442102A8FAF7CF
:1052C000F1FF4949206888427ED1012002900020E8
:1052D000039002A8FDF72AFE08B1FBF7E2FB00BF2E
:1052E0004248006E40F48040404908660846006E1F
:1052F00000F48040019000BF00BF00BF0846C06CB2
:1053000040F00400C8640846C06C00F0040001903E
:1053100000BF00BF00BF0846C06C40F00200C86478
:105320000846C06C00F00200019000BF00BF1020D2
:1053300013900220149000201590169007201790CB
:1053400013A92B48FDF78EFB8020139002201490A8
:105350000020159016900720179013A92548FDF7F7
:1053600081FB254825490860182048600021234812
:105370008160C16080210161002141618161C16161
:105380000162FDF781FA08B1FBF78BFB00BF1B48F8
:10539000E067846200BF184814301949086019207A
:1053A00048601021164881600021C16080210161A0
:1053B000002141618161C1610162FDF765FA08B1B7
:1053C000FBF76FFB00BF00E00BE00D48A0678462B5
:1053D00000BF002203212520FDF7C0FC2520FDF79A
:1053E000A9FC18B010BD00000038014000100240B8
:1053F000000800480004004808000240D4040020CF
:105400003405002070B504460D461646D4F88800D1
:1054100020282CD105B10EB9012070BD00BF94F831
:105420008000012801D10220F7E7012084F88000E4
:1054300000BF0020E0660F492068884211D0206834
:10544000406800F4000060B100BF00BF216851E86F
:10545000001F41F08060226842E800010029F5D178
:1054600000BF32462946204601F0DAFCD5E702208B
:10547000D3E7000000800040704770472DE9F84FE7
:1054800004460E4617469946D4F8840020285ED17B
:1054900006B117B90120BDE8F88F00BF94F880006D
:1054A000012801D10220F6E7012084F8800000BF26
:1054B00000205434A06321202063FDF7C9FB8246FD
:1054C00027806780543CA068B0F5805F04D12069D4
:1054D00010B90025B04602E035464FF0000800BF85
:1054E000002084F8800000BF1DE053460022802188
:1054F0002046CDF8009001F0FDFC08B10320CAE77A
:1055000045B9B8F80000C0F308002168886208F1C6
:10551000020803E02878216888626D1CB4F8560000
:10552000401EA4F85600B4F856000028DDD15346BA
:10553000002240212046CDF8009001F0DBFC08B1AC
:105540000320A8E72020C4F884000020A3E702205D
:10555000A1E7704700BFFEE78168024A1140491C7D
:1055600081607047C0FFFF7F0146886800F01F0020
:105570007047024602F1600000EB8103186800F0FA
:10558000F8407047024602F1600000EB81031868A2
:1055900000F0F84070470146C86800F0007070479E
:1055A00001468868C0F3C000704701468868C0F3B0
:1055B000C00070478168034A114041F008018160D2
:1055C00070470000C0FFFF7F01468868C0F34000BD
:1055D00070470146886800F00100704701468868FE
:1055E00000F00100704701468868C0F30070704702
:1055F00001468868C0F38000704701468868C0F3A0
:10560000800070470146C86800F4406008B9012076
:1056100070470020FCE770B500F11404C1F3406549
:1056200004EB85031C68C1F304560725B540AC4361
:10563000C1F3045502FA05F52C431C6070BD70B52A
:1056400000F11404C1F3406504EB85031C68C1F349
:1056500004560725B540AC43C1F3045502FA05F5DD
:105660002C431C6070BD826822F0E0720A438260A5
:105670007047826822F0E0720A438260704710B57A
:1056800000F1600404EB81031C6824F0004414431F
:105690001C6010BD10B500F1600404EB81031C68B0
:1056A00024F0004414431C6010BD426922F0004203
:1056B0000A4342617047426922F000420A43426154
:1056C0007047000038B504462088608000BF002283
:1056D00010214FF09040FDF7B5FA00BFC823032218
:1056E00069461548FEF7CEFA00BF012210214FF09F
:1056F0009040FDF7A7FA00BF9DF8000000049DF858
:10570000011040EA01209DF8021040EA0105A80AB4
:105710002080208800EE100AB8EE400ADFED070A6C
:1057200020EE200ADFED060A80EE201A84ED011A31
:10573000204601F073FE38BDFC0200200000B44397
:1057400000008046F8B50446002539E020886080D6
:1057500000BF002210214FF09040FDF773FA00BF08
:10576000C823032269461848FEF78CFA00BF0122BD
:1057700010214FF09040FDF765FA00BF9DF8000042
:1057800000049DF8011040EA01209DF8021040EA53
:105790000106B00A2080208800EE100AB8EE400A08
:1057A000DFED0A0A20EE200ADFED090A80EE201A5A
:1057B00084ED011A204601F031FE0020E0606D1CEE
:1057C0000A2DC3DBF8BD0000FC0200200000B4433A
:1057D00000008046D0ED050A2349C1ED000AD0E95A
:1057E0000312891A00EE901AF8EEE00A9FED1F1AD4
:1057F00060EE810A9FED1E1AC0EE811AB0EE610ABA
:105800001949D1ED000A70EE600A9FED1A1AF4EE04
:10581000C10AF1EE10FA0ADCD1ED000A70EE600A5E
:105820009FED151AF4EEC10AF1EE10FA0DD20E49F1
:10583000D1ED000A9FED111A60EE810A9FED101A5A
:1058400040EE010AC0ED050A0CE00749D1ED000A5F
:105850009FED0C1A60EE810A9FED0B1A40EE010AD3
:10586000C0ED050A7047000018000020007C1249B6
:105870000000804600404E4500404EC577BE7F3F49
:105880006F12833AA4707D3F0AD7233C00B59BB0CA
:105890000020189019901A90202110A8FAF702FD04
:1058A0003C2101A8FAF7FEFC4FF0A0403749086000
:1058B0004FF440304860002134488160C16001618C
:1058C000012141610421816100210177417701219A
:1058D0000162002180F82410C162016380F8381051
:1058E000C16380F84010FCF749FD08B1FBF7D9F817
:1058F0000020189018A92548FCF79CF808B1FBF780
:10590000D0F82348109006201190002012907F209C
:105910001390042014900020159010A91B48FCF748
:105920000FF908B1FBF7BDF8194801900920029062
:10593000012003907F200490042005900020069011
:105940000220099000208DF828008DF829008DF89C
:105950002A0084200B9080200C9000208DF83400C9
:1059600001A90A48FBF7F4FB08B1FBF79AF80948CC
:10597000019040F20F10029001A90448FBF7E8FBE8
:1059800008B1FBF78EF81BB000BD000090020020AC
:10599000020030040400600808B500BF1548806CA0
:1059A00040F00400134988640846806C00F004004D
:1059B000009000BF00BF00BF0846806C40F00100AF
:1059C00088640846806C00F00100009000BF00BFB2
:1059D000002211460B20FDF7C1F90B20FDF7AAF9B3
:1059E000002211460C20FDF7B9F90C20FDF7A2F9B1
:1059F00008BD00000010024000B587B0142102A8C5
:105A0000FAF750FC00BF3648C06C40F0040034493F
:105A1000C8640846C06C00F00400019000BF00BFDD
:105A200000BF0846C06C40F02000C8640846C06C47
:105A300000F02000019000BF00BF00BF0846C06C0E
:105A400040F00100C8640846C06C00F001000190FD
:105A500000BF00BF00BF0846C06C40F00200C86431
:105A60000846C06C00F00200019000BF00BF012298
:105A700010214FF09040FDF7E5F80122D1031948BD
:105A8000FDF7E0F81020029001200390049002201E
:105A9000059002A94FF09040FCF7E4FF4FF4E0407E
:105AA00002904FF4041003900020049002A90D48C6
:105AB000FCF7D8FF4FF40040029001200390002033
:105AC0000490059002A90748FCF7CCFF00220121B1
:105AD0002820FDF743F92820FDF72CF907B000BD79
