:020000040800F2
:1000000030090020ED010008F3470008F740000820
:10001000F1470008A90A00082D540008000000005C
:10002000000000000000000000000000F74700088A
:10003000670B000800000000F5470008F9470008BA
:10004000070200080702000807020008070200086C
:10005000070200080702000807020008070200085C
:10006000070200080702000807020008AD0A00089E
:10007000B90A000807020008070200080702000882
:1000800007020008000000009108000807020008AD
:10009000070200080702000807020008070200081C
:1000A000714800080702000807020008070200085C
:1000B00007020008070200080702000807020008FC
:1000C00007020008070200080702000807020008EC
:1000D00007020008F553000807020008070200089D
:1000E000690B000807020008070200080702000861
:1000F00007020008070200080702000800000000CD
:1001000000000000070200080000000007020008CD
:1001100007020008000000009548000807020008D8
:10012000070200080702000807020008070200088B
:10013000070200080000000000000000070200089D
:10014000070200080702000800000000000000008D
:10015000000000000000000000000000000000009F
:10016000000000000000000000000000070200087E
:10017000070200080000000000000000000000006E
:10018000000000000702000800000000000000005E
:10019000000000000000000000000000000000005F
:1001A000000000000000000007020008070200082D
:1001B000070200080702000807020008000000000C
:1001C000000000000702000800000000000000001E
:1001D0000702000807020008DFF80CD000F0AAFAB6
:1001E00000480047C55700083009002006488047EE
:1001F00006480047FEE7FEE7FEE7FEE7FEE7FEE70C
:10020000FEE7FEE7FEE7FEE755480008D9010008D3
:100210002DE9F05F0546002092469B46884606463B
:10022000814640241BE0284641464746224600F0CE
:100230009BF953465A46C01A914110D311461846AD
:10024000224600F082F92D1A67EB01084F4622463C
:100250000120002100F079F917EB00094E41201E22
:10026000A4F10104DFDC484631462A464346BDE896
:10027000F09F40EA01039B0703D009E008C9121F61
:1002800008C0042AFAD203E011F8013B00F8013B50
:10029000521EF9D27047D2B201E000F8012B491E7C
:1002A000FBD270470022F6E710B513460A46044613
:1002B0001946FFF7F0FF204610BD2DE9FE4F80469E
:1002C00081EA0300C00F0C46009021F0004123F0AA
:1002D0000045B8EB0200A94105D2404621469046B0
:1002E0001C460B46024623F00040104347D0270D22
:1002F000C7F30A00C3F30A510290401A0190402844
:100300006BDAC3F3130040F4801B0098924620B1CF
:100310000023D2EB030A63EB0B0B01985946C0F1A3
:100320004002504600F011F906460D465046594627
:10033000019A00F029F910EB08006141002487EAD6
:10034000115284EAE7731A4340D0009A62B3019ACB
:10035000012A4FEA075215DC001B61EB02014FF046
:10036000004202EA0752CDE90042001C41F580112B
:1003700032462B4600F060F903B0BDE8F08F4046EE
:100380002146F9E7001B61EB0201001C41F58013D7
:1003900000185B412018A2F5001747EB030140EA63
:1003A000D570B6196D4111E06D084FEA360645EA81
:1003B000C0754FEA0752001B61EB0201001C41F5BA
:1003C000801149084FEA30000019514132462B464E
:1003D00003B0BDE8F04F00F020B9009801224000C2
:1003E0000023D0EB020263EBE073009821464FEA52
:1003F000E074B8EB000061EB0401E9E783F000432F
:100400005BE781F0004158E72DE9FE4F81EA0304E4
:1004100004F0004421F0004100944FF0000B23F061
:10042000004350EA01045ED052EA03045BD0C3F3F8
:100430000A54C1F30A552C44A4F2F3340194A0FBEE
:100440000254C1F3130141F48011C3F3130343F4C5
:10045000801301FB024400FB034E840A970A44EA1E
:10046000815447EA8357A4FB076802958D0A05FB70
:1004700007854FEA932C04FB0C542705029D4FEA95
:10048000065847EA1637B5EB08056EEB070C870EE2
:10049000920E47EA811742EA8312A7FB0201B6EBEC
:1004A0000B0164EB00042B0D43EA0C335E1844EBA4
:1004B0001C50DA465146E7FB0201C5F313044FEA2C
:1004C0000B3343EA14534FEA0432019C43EA060318
:1004D000A4F10C040294009CCDE900B400F0ACF847
:1004E00003B0BDE8F08F00200146F9E700F00042BC
:1004F00030F000400AD0C10D01F56071C0F3160064
:1005000042EA0151C20840071143704700200146EA
:10051000704701F0004330B421F0004150EA01027D
:1005200006D00A0DA2F56072C1F31301002A02DCA5
:1005300030BC00207047440F44EAC104C100E018F9
:1005400030BC00EBC25000F031B8202A04DB203A66
:1005500000FA02F1002070479140C2F1200320FA16
:1005600003F3194390407047202A04DB203A21FA14
:1005700002F00021704721FA02F3D040C2F12002BC
:100580009140084319467047202A06DBCB17203AD2
:1005900041FA02F043EAE07306E041FA02F3D04088
:1005A000C2F1200291400843194670470029A8BFB4
:1005B0007047401C490008BF20F00100704710B48C
:1005C000B0FA80FC00FA0CF050EA010404BF10BC41
:1005D000704749B1CCF1200421FA04F411FA0CF16E
:1005E00018BF012121430843A3EB0C01CB1D4FEAA7
:1005F00000614FEA102042BF002010BC704700EBA2
:10060000C35010440029A4BF10BC7047401C4900CF
:1006100008BF20F0010010BC704710B5141E73F124
:10062000000408DA401C41F1000192185B411A43B2
:1006300001D120F0010010BD2DE9F04D92469B46FE
:1006400011B1B1FA81F202E0B0FA80F220329046A4
:10065000FFF77BFF04460F4640EA0A0041EA0B0120
:1006600053465A46084313D0114653EA010019D0A5
:10067000C8F140025046FFF777FF05460E46504648
:1006800059464246FFF761FF084305D0012004E0C8
:1006900020463946BDE8F08D0020054346EAE07665
:1006A0002C4337430A986305E40AA0EB08000022B4
:1006B000FD0A44EA47540A3002D500200146E9E722
:1006C000010510196941DDE9084500196941BDE8D6
:1006D000F04DA2E770B5044601F000450020054347
:1006E00004D14FF00045644265EB010103F0004581
:1006F000284305D118464FF00043524263EB0003F4
:10070000101B73EB010002D24FF0004009E082EAB7
:10071000040283EA01034FF000501A4301D14FF065
:10072000C0404FEA2062EFF3008162F31F6181F362
:10073000008870BD064C074D06E0E06840F00103FC
:1007400094E8070098471034AC42F6D3FFF748FD11
:1007500008630008286300089FED241AB5EE002AFC
:1007600045F604330021B7EE004AC0F6000320EE40
:10077000010A30EE020ABDEEC01AB5EEC00A11EE53
:10078000100AF1EE10FA9FED1A1AB8BF013802EE06
:10079000100AB8EEC22A30EE420A9FED162A20EE69
:1007A000010ABDEEC01A11EE100A30EE021A02461E
:1007B000B1EB502F18BF002202EE102A03EB820388
:1007C000B1EB502F18BFB0EE410AB8EE421A93EDCC
:1007D000002A93ED013A30EE410A34EE401A20EE41
:1007E000030A21EE021A31EE000A704783F9223E15
:1007F00000000044000000C49FED221A45F60433B7
:100800000021B7EE004AC0F6000320EE010ABDEE5B
:10081000C01AB5EEC00A11EE100AF1EE10FA9FED03
:100820001A1AB8BF013802EE100AB8EEC22A30EE2A
:10083000420A9FED162A20EE010ABDEEC01A11EE03
:10084000100A30EE021A0246B1EB502F18BF0022F8
:1008500002EE102A03EB8203B1EB502F18BFB0EE6B
:10086000410AB8EE421A93ED002A93ED013A30EEB8
:10087000410A34EE401A20EE030A21EE021A31EE4C
:10088000000A704783F9223E00000044000000C4C3
:10089000014801F01FB900009002002070B5044625
:1008A0000068816811F0010F2DD18168174A11424B
:1008B0001AD18168D5432940491C816001F03AFE74
:1008C00006461BE0816811F0010F03D181682940C1
:1008D000491C816001F02EFE801B02280ED9206881
:1008E0000068C043C00709D0E06D40F01000E0652B
:1008F000206E40F001002066012070BD2068016874
:10090000C943C907DED1002070BD00003F00008050
:1009100070B50446008860800E216C2000F030F82D
:1009200005020F216C2000F02BF821882843411A82
:10093000C831B1F5C87F09D90E216C2000F020F82C
:1009400005020F216C2000F01BF82843208080B2A4
:1009500000EE100ADFED080A2046B8EE400A20EE4D
:10096000200ADFED060A20EE200A84ED010ABDE828
:10097000704004F005BF00000000B443000080395F
:1009800070B50D46044603F054FC04F0FE0003F07D
:1009900020FC03F085FC284603F01BFC03F080FCE0
:1009A00003F047FC44F0010003F013FC03F078FC73
:1009B000002003F0E3FB044603F05AFC204670BD20
:1009C0002DE9F04104462DED028B03F0BBFB002521
:1009D0009FED138ADFED138A2F46208860800E2159
:1009E0006C20FFF7CDFF06020F216C20FFF7C8FF38
:1009F000304300EE100A20802046B8EE400A20EE78
:100A0000080A20EE280A84ED010A04F0B9FE6D1CE4
:100A1000E760052DE1DBBDEC028BBDE8F081000055
:100A20000000B44300008039D0E90312891A00EEB7
:100A3000901A9FED151A90ED050AF8EEE00A144A97
:100A400060EE810A9FED111A60EE810A30EEC01A45
:100A500011EE101A914204DC11EE101A0D4A914267
:100A600006D99FED0D1A20EE010A9FED0C1A05E044
:100A70009FED0B1A20EE010A9FED0A1A00EE810A83
:100A800080ED050A70470000007C124900008039A3
:100A900000404E4500404EC577BE7F3F6F12833AFF
:100AA000A4707D3F0AD7233CFEE70000014801F017
:100AB000FABA000070040020014801F0F4BA000006
:100AC000D00400200D4902688A4201D20C4901E09D
:100AD0000B492031D2B21423083AB2FBF3F2436C33
:100AE00002F01F0223F0030319448164044980319A
:100AF000C164012191400165704700000804024073
:100B0000000802400179074A02EB81024265054A6A
:100B10004432491E826501F01F0201219140C165E6
:100B200070470000FC08024030B5D0E9134565600D
:100B3000446D14B1D0E91645656090F8444004F066
:100B40001F050124AC40056C6C6004686360836819
:100B5000102B036803D099600068C26030BD9A60B2
:100B60000068C16030BD704710B54FF4805001F08F
:100B70009FFB4FF4005001F09BFBBDE810404FF489
:100B8000804001F095BB704710B504462DED028BF7
:100B900090ED010AFFF7E0FDF0EE400A94ED010A46
:100BA000B0EE608AFFF728FE94ED0E1AD4ED0D1A10
:100BB00061EE080A40EE610A21EE000A01EE880AA1
:100BC000C4ED040A84ED050ABDEC028B10BD0000E3
:100BD00090ED070AD0ED080A90ED061A9FED0A2A5B
:100BE00070EE201A30EE600A21EE021A9FED072AFD
:100BF000DFED070A01EEC21A20EE200A80ED021A8C
:100C000080ED030A70470000ABAA2A3FABAAAA3EB8
:100C10003ACD133F10B504462DED068B20482060D9
:100C2000FFF7CEFE9FED1F8ADFED218ADFED1E1A52
:100C3000F0EE482AB0EE482A9FED1C1AF0EE680A42
:100C40009FED1C0A032104F13C0004F031FF9FEDED
:100C50001A9ADFED1A9A9FED1AAAB0EE482AF0EE22
:100C6000491AB0EE691AF0EE680AB0EE4A0A03219A
:100C700004F1A80004F014FFB0EE482AF0EE491A7F
:100C8000B0EE691AF0EE680AB0EE4A0ABDEC068BC7
:100C900004F58A700321BDE8104004F001BF000094
:100CA000140000200000000017B7D1389A99193FAE
:100CB000CDCCCC3DCDCC4C3E6F12833A0AD7233CF1
:100CC0009A99993E10B504462DED028B90ED010ADC
:100CD000FFF742FDF0EE400A94ED010AB0EE608AA3
:100CE000FFF78AFD94ED021AD4ED031A0E4861EE67
:100CF000080A41EE800AC4ED0C0A61EE880A41EE52
:100D0000400A9FED080A9FED091A20EE800AD0EDF7
:100D1000000A00EE810A84ED0B0A80ED000ABDECAA
:100D2000028B10BD0AD7233C00000020A4707D3F39
:100D300070B5044690F88001D4ED610A04F13C05D9
:100D400010B101280DD006E094ED0B0A284604F0FE
:100D5000CFFD84ED0D0A084894ED610A80ED000A8C
:100D600070BD206890ED050A04F1A80004F0C0FDF4
:100D7000F0EE400AE8E700006C00002010B50446E1
:100D80002DED0A8BFFF700FF94ED048ABEEE000AFA
:100D900068EE000A94ED050A9FED4E1A20EE010A56
:100DA00070EEC08A30EE809A18EE900AFFF79EFB34
:100DB00041EC1A0B19EE100AFFF798FB41EC1B0BE4
:100DC00018EE100AFFF792FB41EC100BB0EE4B1A35
:100DD000F0EE6B1A04F03CFCB0EE4A1AF0EE6A1A20
:100DE00004F036FCB0EE40AAF0EE60AA18EE900ACD
:100DF000FFF77CFB41EC1B0B19EE100AFFF776FBAB
:100E000041EC1C0B18EE100AFFF770FB41EC100BC5
:100E1000B0EE4C1AF0EE6C1A04F054FCB0EE4B1A23
:100E2000F0EE6B1A04F04EFC53EC1A2B51EC100B45
:100E3000FFF743FA9FED281B53EC112BFFF7E4FA61
:100E4000FFF767FB00EE900AB6EE000A30EE891A53
:100E5000F0EE401A41EE001A9FED211A61EE812A50
:100E6000DFED201A82EEA12A70EEA82A22EE002AD7
:100E7000BCEEC22A12EE100AB0EE402A02EE802A20
:100E800080B2E08462EE012A82EEA12A22EE002ADC
:100E9000BCEEC22A12EE101A38EE202AF0EE400AFA
:100EA000218542EE000A60EE810A80EEA11A21EE51
:100EB000000ABCEEC00A10EE101AA1840A490860AC
:100EC000091DA08C0860091D208D0860BDEC0A8BEF
:100ED00010BD0000D7B35D3F000000000000E0BF80
:100EE000A037204D00409C46342C01407047000044
:100EF0002DE9F84F4FF000080446CDF800800D466C
:100F000094F85820DFF80094616947464046012A6A
:100F10000AD00126FD4A84F8586041B1296A0129A6
:100F200005D0A36EEBB129E00220BDE8F88F686818
:100F3000092838D1A96A4FF4785041B12B6801F0E3
:100F40007C0100EA53400843E96A084302E029684B
:100F500000EA51402168CB6C13400343CB646066C8
:100F600021E0C4E91971A96A286A31B101F07C0154
:100F7000401E0843E96A084300E0401E29682B79B7
:100F8000C1F3846103F01F0399400143A06E401E2A
:100F9000A066636E43EA0103636604D12068C16CF6
:100FA00011401943C164206803F0B5F958B995F8A8
:100FB000250098B12068C16895F8262021F44011D9
:100FC00041EA4251C160206803F0ADF982462068D1
:100FD00003F0A1F95AEA00000DD0FBE095F82600D5
:100FE00095F82410400540EA01512068C26822F4B7
:100FF00040121143E6E7A86A30B1E86A20B195F8DB
:10100000250001285ED003E095F82500012804D0D2
:101010002068C16821F0007103E02068C16841F0D8
:101020000071C16095F83000012852D02068016934
:1010300021F002010161AA6829682068B2F1004F1D
:1010400038D003F08BF92068416921F000414161FB
:1010500020686969C268C2F3C102520091402A69DE
:10106000042A44D000EB82002B68026EDFF8A0C295
:1010700003F0F84302EA0C020B431A4342F000412A
:10108000016620682A69A96900EB8200026E22F0DD
:1010900080720A430266297F22682869012923D0C9
:1010A0005FF0000102EB8000026E22F000720A4342
:1010B00002668FE0002203F051F92068416941F097
:1010C0000041C4E7E06D40F02000E0654FF001080A
:1010D000A8E7D5E90D1001432068026922F4FF72E8
:1010E00042F002021143A5E74FF00071DAE7002158
:1010F00003F007F9400320684FF0000172D003F0BD
:1011000000F990FAA0F0B0FA80F1286842036ED09E
:1011100090FAA0F0B0FA80F0814204D1002211468A
:10112000206803F032F90121206803F0EAF8400357
:1011300020684FF001015DD003F0E3F890FAA0F0D1
:10114000B0FA80F12868420359D090FAA0F0B0FAC2
:1011500080F0814204D100220121206803F015F9BA
:101160000221206803F0CDF8400320684FF002010F
:1011700048D003F0C6F890FAA0F0B0FA80F12868E1
:10118000420344D090FAA0F0B0FA80F0814204D13A
:1011900000220221206803F0F8F80321206803F000
:1011A000B0F8400320684FF0030133D003F0A9F8F2
:1011B00090FAA0F0B0FA80F1286842032FD090FA9C
:1011C000A0F0B0FA80F0814204D10022032120680F
:1011D00003F0DBF82068816811F0010F22D0AEE047
:1011E00000E004E003F08DF8C0F384618DE7C0F304
:1011F000846091E703F085F8C0F38461A2E7C0F34F
:101200008460A6E703F07DF8C0F38461B7E7C0F31C
:101210008460BBE703F075F8C0F38461CCE7C0F3EA
:101220008460D0E7EB6829684B4550F8B03FC1F3C4
:10123000120101D10B4300E08B430360E86848458D
:101240007DD1286841031BD090FAA0F1B1FA81F159
:10125000491C01F01F0109294FEA403131D800290A
:1012600011D090FAA0F1B1FA81F100BF01F10101B2
:1012700001F01F0106FA01F608D1C0F3846109E00C
:10128000C0F38461E4E7C0F38461EFE790FAA0F172
:10129000B1FA81F101F1010101F01F0146EA81611A
:1012A00002D1C0F3846003E090FAA0F0B0FA80F0BD
:1012B00000F1010000F01F0000EB400041EA005186
:1012C00039E000290ED090FAA0F1B1FA81F100BF07
:1012D00001F1010101F01F0106FA01F605D1C0F389
:1012E000846106E0C0F38461F2E790FAA0F1B1FAFC
:1012F00081F101F1010101F01F0146EA816109D18B
:10130000C0F384600AE01AE000007F40004010044F
:1013100000F0FF0390FAA0F0B0FA80F000F10100B5
:1013200000F01F002A4A00EB400002EB005041EAA7
:10133000000141F00071AA68206803F00FF8254809
:101340002A68024240D024488168244B01F0E071B1
:101350009A4202D0224B9A421BD10B0219D4226826
:10136000B2F1A04F30D1826841F4000122F0E07266
:101370000A4382601B481C490068B0FBF1F0801CE6
:1013800000EB4000800000E0401E00900028FBD1F0
:101390001AE0164D164BAA4207D1CD0105D422689A
:1013A0009A4211D041F0807109E0124DAA420BD14E
:1013B0004A0209D422689A4206D041F48001826828
:1013C00022F0E0720A43826084F858704046ACE52F
:1013D000000020FE0000088000030050000021C330
:1013E0001000C09004000020400D0300000052C710
:1013F00000010050000084CB10B50168D1F88010C6
:101400009FED291AA1F2DB7100EE101A274CF8EEBD
:10141000C00A9FED240A60EE800A60EE810AC4EDE6
:10142000070A0068D0F88400F1EE600AA0F62100F7
:1014300001EE100A1E48B8EEC11A21EE000A84ED32
:10144000080A30EEC00A84ED060AFFF761FA184870
:10145000DFED180A0088A0F50870C0EBC00000EEB0
:10146000100A2046B8EEC00A20EE200A84ED010AD8
:10147000FFF7AEFB2046FFF725FC94ED0C0A204653
:10148000B1EE400A84ED0C0A94ED0B0AB1EE400A6D
:1014900084ED0B0AFFF74CFC2046BDE81040FFF737
:1014A0006DBC0000CC85D83C2784903F080100200B
:1014B00014000020EA0FC93A704700002DE9F041FE
:1014C00004464548806800F01F05206802F023FFAD
:1014D00008BB2068C168C06C01F0004100F4C07016
:1014E000084312D094F85800012814D0012084F841
:1014F00058002046FFF7D2F901004FF000020CD04F
:1015000084F858200846BDE8F081E06D40F02000E6
:10151000E0650120F7E70220F5E7E06DC00504D59E
:10152000206E20F00800206600E02266E06D42F2A6
:101530000103984340F48050E065284B20684FF049
:10154000A046984201D1374600E00746874200D0C6
:101550001DB9E76D27F48017E7656027076084F8F9
:1015600058202068C268920203D5426842F4806223
:101570004260A06908282068426807D022F0400233
:1015800042602068426842F0200206E022F0200219
:1015900042602068426842F04002426020689842FF
:1015A00001D1324600E00246824209D045B1062D03
:1015B00006D0072D04D0E06D40F48010E065A1E76F
:1015C000C26812F0007F9DD18268054B1A4042F03C
:1015D0000802826096E700000003005000010050FE
:1015E000C0FFFF7F704770472DE9F047044690F831
:1015F00058009CB00E464FF00009012822D001206F
:1016000084F8580000251795189520684FF0A048D9
:10161000404519D1274F0097384602F084FE824694
:10162000206802F080FE50EA0A0115D0E06D40F01B
:101630002000E0654FF0010984F8585048461CB07E
:10164000BDE8F0870220FAE7E06D40F02000E06599
:1016500084F858500120F2E71748316840F61F72AD
:101660000029816821F4604116D094F8383041EAAD
:101670004331736819438160D8F80810BB6801F0E2
:10168000010103F001031943D6D1B368316819434E
:101690008368934319430BE08160D8F80810BB6856
:1016A00001F0010103F001031943C5D181689143A1
:1016B0008160C1E700010050000300502DE9F84FA0
:1016C00000270446009790F85800DFF8D4930D46A1
:1016D000B846012811D0012684F85860206802F02D
:1016E0001EFE60B1E06D40F02000E0655FF0010794
:1016F00084F858803846BDE8F88F0220FBE7D5E92A
:1017000000210C23206803EA91131844036B01F0B5
:101710001F014FF01F0C0CFA01FCC2F3846223EA94
:101720000C038A4013430363206802F0F8FD8246ED
:10173000206802F0ECFD5AEA00003CD1AA68296852
:101740002068B2F1004F37D002F0F9FD20684169FE
:1017500021F00041416120686969C268C2F3C10299
:10176000520091402A69042A31D000EB82002B6894
:10177000026EDFF830C303F0F84302EA0C020B43B9
:101780001A4342F00041016620682A69A96900EB0A
:101790008200026E22F080720A430266297F22686C
:1017A0002869012910D0002102EB8000026E22F08E
:1017B00000720A4302667DE0002202F0C0FD20684C
:1017C000416941F00041C5E74FF00071ECE70021AD
:1017D00002F091FD400320684FF0000172D002F04A
:1017E0008AFD90FAA0F0B0FA80F1286842036ED02A
:1017F00090FAA0F0B0FA80F0814204D100221146A4
:10180000206802F0BAFD0121206802F074FD400357
:1018100020684FF001015DD002F06DFD90FAA0F05C
:10182000B0FA80F12868420359D090FAA0F0B0FADB
:1018300080F0814204D100220121206802F09DFD48
:101840000221206802F057FD400320684FF002019A
:1018500048D002F050FD90FAA0F0B0FA80F128686C
:10186000420344D090FAA0F0B0FA80F0814204D153
:1018700000220221206802F080FD0321206802F08E
:101880003AFD400320684FF0030133D002F033FDEE
:1018900090FAA0F0B0FA80F1286842032FD090FAB5
:1018A000A0F0B0FA80F0814204D100220321206828
:1018B00002F063FD2068816811F0010F22D0A7E0DB
:1018C00000E004E002F017FDC0F384618DE7C0F38F
:1018D000846091E702F00FFDC0F38461A2E7C0F3DA
:1018E0008460A6E702F007FDC0F38461B7E7C0F3A8
:1018F0008460BBE702F0FFFCC0F38461CCE7C0F377
:101900008460D0E7EB6829684B4550F8B03FC1F3DD
:10191000120101D10B4300E08B430360E8684845A6
:1019200076D1286841031BD090FAA0F1B1FA81F179
:10193000491C01F01F0109294FEA403131D8002923
:1019400011D090FAA0F1B1FA81F100BF01F10101CB
:1019500001F01F0106FA01F608D1C0F3846109E025
:10196000C0F38461E4E7C0F38461EFE790FAA0F18B
:10197000B1FA81F101F1010101F01F0146EA816133
:1019800002D1C0F3846003E090FAA0F0B0FA80F0D6
:1019900000F1010000F01F0000EB400041EA00519F
:1019A00032E000290ED090FAA0F1B1FA81F100BF27
:1019B00001F1010101F01F0106FA01F605D1C0F3A2
:1019C000846106E0C0F38461F2E790FAA0F1B1FA15
:1019D00081F101F1010101F01F0146EA816102D1AB
:1019E000C0F3846003E090FAA0F0B0FA80F000F158
:1019F000010000F01F002C4A00EB400002EB0050F9
:101A000041EA000141F00071AA68206802F097FCE9
:101A100026482A6802423FF46BAE25488168254B70
:101A200001F0E0719A4202D0234B9A421CD10B0282
:101A30001AD42268B2F1A04F7FF45AAE826841F402
:101A4000000122F0E0720A4382601C481C490068D1
:101A5000B0FBF1F0401C00EB4000800000E0401EB5
:101A600000900028FBD143E6164D174BAA4207D140
:101A7000CD0105D422689A42F5D041F0807109E089
:101A8000124DAA42EFD14A02EDD422689A42EAD01E
:101A900041F48001826822F0E0720A43826027E606
:101AA00000007F4000F0FF03000020FE00000880DF
:101AB00000030050000021C31000C090040000206B
:101AC000400D0300000052C700010050000084CB0D
:101AD000704770472DE9F05F044600680668456866
:101AE000DFF854B2DBF8080000F01F07B0070ED58E
:101AF000A8070CD5E06DC00603D4E06D40F400608B
:101B0000E0652046FFF7F2F9216802200860DFF85F
:101B10002CA270074FF0A04801D5680703D4300706
:101B200037D5280735D5E06DC00603D4E06D40F405
:101B30000070E065206802F0FAFB20B32068504591
:101B400001D1424600E00246824208D03FB1052F53
:101B500005D0092F03D0504503D1414602E0C168AA
:101B600001E00146C96889040DD4016809070AD556
:101B700002F0D5FB58B3E06D40F01000E065206E38
:101B800040F0010020662046FFF7A2FF21680C20EC
:101B90000860B00601D5A80603D4700658D56806BB
:101BA00056D5E06DC00603D4E06D40F40050E0650A
:101BB0002068C16C11F4C07F1AD00021894602F060
:101BC000B6FB02462068504514D1434613E0206816
:101BD000416821F00C014160E06D20F48070E06507
:101BE000E06DC004CFD4E06D40F00100E065CAE7CD
:101BF0000121E3E70346834208D03FB1062F05D019
:101C0000072F03D0504503D1414602E0C16801E0EF
:101C10000146C968B9F1000F14D08B0102D58AB111
:101C20008A040FD4026852060CD589020AD402F045
:101C30006EFBE8B3E06D40F01000E065206E40F010
:101C4000010020662046FFF7D7FB2168602008606E
:101C500030060BD5280609D5E06D40F48030E065EC
:101C6000204600F06BF9216880200860F0050CD553
:101C7000E8050AD5E06D40F40030E0652046FFF746
:101C8000B1FC21684FF480700860B0050CD5A80540
:101C90000AD5E06D40F48020E0652046FFF7A3FC04
:101CA00021684FF400700860F0062ED5E80600E0C9
:101CB00008E02AD5E06BD0B1AFB1DBF8080000F442
:101CC000604013E02068416821F060014160E06DF0
:101CD00020F48050E065E06DC005B3D4E06D40F0C5
:101CE0000100E065AEE72068C068C00750B1E06D54
:101CF00040F48060E065206E40F0020020662046DF
:101D0000FFF7E7FE216810200860700512D568050E
:101D100010D5E06D40F48040E065206E40F0080092
:101D2000206621684FF4806008602046BDE8F05FBF
:101D3000FFF7C2BBBDE8F09F000300500001005058
:101D4000F8B54FF0000504002E46009502D0E06D76
:101D500010B107E00120F8BD204600F0F1F826663A
:101D600084F8586020688168C1F3407119B18168B6
:101D70006A4A1140816020688168C1F3007189B9A5
:101D80008168674A114041F0805181606548664929
:101D90000068B0FBF1F04000801C00E0401E0090A5
:101DA0000028FBD120688168C1F3007141B9E16D61
:101DB00041F01001E165216E41F00101216601252C
:101DC00002F0ADFAE16D01F010010143E06D05D0C4
:101DD00040F01000E06501252846F8BD20F4807031
:101DE00040F00200E0652068806810F0010F11D11A
:101DF0004FF0A04080684D4900F00100896801F073
:101E00000101084306D14A486168826822F47C12C5
:101E10000A438260E168E06B627F0843A16841EA9F
:101E20004231084394F8241040EA0140012904D1CA
:101E3000218D404A02EB41410843E16A29B101F496
:101E40007871226B014342EA01002168CA683A4B6B
:101E50001A400243CA6020680169626B21F0406148
:101E600011430161206802F05AFA0646206802F028
:101E70004EFA30432ED1207F94F83810800340EA88
:101E800041012068C26844F202039A430A43C260D7
:101E900020690028206801690AD041F4803101617D
:101EA000206850F8C01F22696FF30D01114307E04D
:101EB00021F480310161206850F8C01F6FF30D01DB
:101EC000016094F8400001280CD02068016921F0DD
:101ED00001010161606901282068016B21F00F0197
:101EE00011D013E0D4E911010843D4E913121143CE
:101EF000084321680A6940F2FC739A43104340F09A
:101F000001000861E6E7226A521E11430163E06D99
:101F100020F0020040F00100E0655DE7C0FFFF5FD8
:101F2000C0FFFF7F04000020400D030000010050AF
:101F3000000300500000FEFF0740F0FF7047000064
:101F400010B598B00446142111A8FEF7ABF944214E
:101F50006846FEF7A7F92068B0F1A04F2DD14FF4E5
:101F60000040009080030F90684600F0E5FB08B148
:101F7000FEF709FE1248C16C41F40051C164C16C06
:101F800001F400511691C16C41F00101C164C06CB3
:101F900011A900F00100169003201190129000206A
:101FA00013904FF0904000F08FF900220121122091
:101FB00000F02AFB122000F019FB18B010BD000041
:101FC0000010024010B590F8253000210122022BAC
:101FD00003D00421C163012122E003681C6824F0BE
:101FE0000E041C60836C1C6824F480741C600368FD
:101FF0001C6824F001041C6090F84430046C03F069
:102000001F0302FA03F36360D0E913345C60436D8D
:1020100033B11C6824F480741C60D0E916345C6011
:1020200080F82520002280F82420084610BD70B5D5
:1020300090F82520002401212346022A07D00422FB
:10204000C26380F8251080F82430012429E002685A
:10205000156825F00E0515600268156825F0010564
:102060001560826C156825F48075156090F8442021
:10207000056C02F01F0201FA02F26A60D0E9132532
:102080005560426D32B1156825F480751560D0E950
:102090001625556080F8251080F82430816B01B139
:1020A0008847204670BDF0B4016C0C6801680D686B
:1020B00090F8442002F01F06042202FA06F323429D
:1020C00011D06B070FD50B689B0603D40B6823F068
:1020D00004030B6090F8441001F01F018A40016C6A
:1020E0004A60016B1DE0022303FA06F727424FF016
:1020F000000C4FF0010218D0AF0716D50C68A406EB
:1021000005D40C6824F00A040C6080F8252090F8AF
:10211000441001F01F018B40016C4B6080F824C01B
:10212000C16A00291AD0F0BC08470823B3402342F3
:1021300014D02B0712D50B6823F00E030B6090F818
:102140004410036C01F01F0102FA01F15960C263EF
:1021500080F8252080F824C0416BE2E7F0BC70478E
:1021600070B504000CD02B4A21681420914209D28A
:10217000294A0A44B2FBF0F08000606427480AE074
:10218000012070BD234A52420A44B2FBF0F08000A5
:102190006064204808382064022084F825000A681A
:1021A00047F6F0708243D4E902031843D4E90435BA
:1021B0002B431843A3691843E3691843236A184360
:1021C000104308602046FEF77DFCA0680025B0F5AE
:1021D000804F00D16560A16C20790860D4E91301BB
:1021E00041606068401E032808D82046FEF78AFC3C
:1021F000606D0560D4E91601416002E06565A56582
:10220000E565E563012084F8250084F8245000206A
:1022100070BD000008040240F8FFFDBF000002404E
:1022200070B5044690F82400002501280CD0012048
:1022300084F8240094F825600020012E06D084F84C
:1022400024000225284670BD022070BD022684F8B5
:102250002560E0632068066826F0010606602046D7
:10226000FEF762FC206B00282068016802D041F074
:102270000E0106E021F0040101602068016841F0D0
:102280000A010160A06C0168C90303D5016841F42B
:1022900080710160606D18B1016841F48071016066
:1022A0002068016841F001010160CBE77047000040
:1022B000044910B50A68024202D00860FFF7F6FF31
:1022C00010BD0000140401402DE9F04FDFF820920A
:1022D000002301260324A9F1040B85B00F2709F17F
:1022E000040AABF1040EFAE006FA03F52A407CD0AA
:1022F00091F804C00CF0030CBCF1010F02D0BCF14A
:10230000020F26D1D0F808C0CDF800C04FEA430C28
:1023100004FA0CF8CDF810C0DDF800C02CEA080C67
:10232000CDF800C0D1F80C80DDF810C008FA0CF828
:10233000DDF800C048EA0C08C0F80880D0F804C0F6
:102340002CEA050C0D79C5F300159D4045EA0C05F6
:1023500045600D79ED43AD070ED0C5684FEA4308DF
:1023600004FA08FC25EA0C05D1F808C00CFA08FCB0
:102370004CEA050CC0F80CC00D7905F00305022DE0
:1023800016D1DD0800EB850CCDF808C0DCF8208004
:102390005D074FEAD56C07FA0CF528EA05080D69C8
:1023A00005FA0CF5DDF808C045EA0805CCF8205020
:1023B00005684FEA430CCDF808C004FA0CFC25EA86
:1023C0000C0591F804C00CF00308DDF808C008FA09
:1023D0000CF848EA0508C0F800804D6815F4403F45
:1023E0007CD0444DD5F860C000E077E04CF0010CA3
:1023F000C5F860C02D6E23F0030C05F001050095B3
:102400003D4D65440295AD684FEA837C4FEA1C78E8
:1024100007FA08FC25EA0C05B0F1904F06D0DFF86A
:10242000DCC0604505D14FF0010C20E04FF0000CFE
:102430001DE0DFF8CCC0604502D14FF0020C16E081
:10244000DFF8C0C0604502D14FF0030C0FE0DFF8A9
:10245000B8C0604502D14FF0040C08E0DFF8ACC012
:10246000604502D14FF0050C01E04FF0060C0CFA6C
:1024700008FC4CEA050C029DC5F808C0D9F80050CC
:10248000CC46D1F8048095435FEAC82800D51543AF
:10249000CCF80050DAF80050D446D1F804809543C7
:1024A0005FEA882800D51543CCF80050DBF80050CF
:1024B000DC46D1F8048095435FEA883800D515439F
:1024C000CCF80050DEF80050F446D1F80480954373
:1024D0005FEAC83800D51543CCF800505B1C0A6889
:1024E00032FA03F57FF400AF05B0BDE8F08F0000CD
:1024F00008040140001002400000014000040048B0
:1025000000080048000C0048001000480014004873
:102510000069084000D001207047426921EA0203A7
:102520000A4043EA0241816170470AB18161704704
:1025300081627047014880687047000008000020F1
:102540000248816842681144816070470800002099
:1025500010B50024032000F077F8002000F008F800
:1025600008B1012401E000F025F8204610BD00006C
:1025700070B50E4E05460024706898B14FF47A711C
:10258000B1FBF0F00A490968B1FBF0F000F066FD1C
:1025900040B9102D06D200222946501E00F034F812
:1025A000356000E00124204670BD000008000020D6
:1025B000040000200C4808B5016E41F001010166DD
:1025C000016E01F001010091816D41F08051816542
:1025D000806D00F080500090052000F035F8BDE8D7
:1025E000084000F0A1B8000000100240002809DBFC
:1025F00000F01F02012191404009800000F1E0201D
:10260000C0F8001170470000F0B40E4B1B680C4678
:10261000C3F30223C3F10705042D00D90425191DB6
:10262000072901D2002300E0DB1E012606FA05F18E
:10263000491E214099409E40761E16403143F0BC11
:1026400002F0F6BF0CED00E0064900F00702086852
:102650004FF6FF03184040EA0220034A1043086087
:10266000704700000CED00E00000FA052B492C4BF0
:102670000A6832214A432B4940B1B0F5007F08680F
:1026800029D020F4C06040F480602CE00868C0F3DA
:102690004120022804D051F8800F20F4807022E0FD
:1026A000D1F8800020F48070C1F88000086820F420
:1026B000C06040F400700860B2FBF3F0401C00E022
:1026C000401E4A69520501D50028F9D148694005E4
:1026D0000AD503207047C0F34120022806D051F8E4
:1026E000800F40F48070086000207047D1F88000AF
:1026F00040F48070C1F88000086820F4C06040F4A5
:1027000000700860B2FBF3F0401C00E0401E4A6914
:102710005205DBD50028F9D1D8E7000004000020DD
:1027200040420F00007000400248816841F480413F
:1027300081607047007000402DE9F843044600684E
:1027400000269D4D00035ED5A86D0027C00008D46B
:10275000A86D40F08050A865A86D012700F080505A
:102760000090DFF85892D9F8001041F48071C9F850
:102770000010FFF7DFFE804606E000BFFFF7DAFE3D
:10278000A0EB080002282BD8D9F80000C005F5D529
:10279000D5F8900010F4407014D0216C814211D013
:1027A000D5F89000D5F8901020F4407041F48031B5
:1027B000C5F89010D5F8901021F48031C5F890102C
:1027C000C5F89000C00711D0FFF7B4FE804641F273
:1027D000883907E0FFF7AEFEA0EB0801494501D9B3
:1027E00003260BE0D5F890008007F3D5D5F89000CC
:1027F000216C20F440700843C5F890001FB1A86D0B
:1028000020F08050A8652078C00707D0D5F8880050
:10281000616820F003000843C5F88800207880072D
:1028200007D5D5F88800A16820F00C000843C5F84A
:1028300088002078400707D5D5F88800E16820F0A7
:1028400030000843C5F888002078000707D5D5F880
:102850008800216920F0C0000843C5F8880020786E
:10286000800607D5D5F88800616920F440600843E8
:10287000C5F888002078400607D5D5F88800A169FA
:1028800020F440500843C5F888002078000607D59A
:10289000D5F88800E16920F440400843C5F8880075
:1028A0002088C00507D5D5F88800216A20F440307B
:1028B0000843C5F888002088800507D5D5F888002A
:1028C000616A20F440200843C5F88800208840054C
:1028D0000FD5D5F88800A16A20F440100843C5F848
:1028E0008800A06AB0F5801F03D1E86840F480102A
:1028F000E860208800050FD5D5F88800E16A20F44B
:1029000040000843C5F88800E06AB0F5800F03D1A5
:10291000E86840F48010E8602088C0040FD5D5F83E
:102920008800216B20F040700843C5F88800206BB8
:10293000B0F1807F03D1E86840F48010E86020881F
:102940004FF0006180040ED5D5F88800626B20F04E
:1029500040601043C5F88800606B884203D1E86886
:1029600040F48010E860208840040ED5D5F8880037
:10297000A26B20F040601043C5F88800A06B88422D
:1029800003D1E86840F48010E860208800040FD587
:10299000D5F88800E16B20F040500843C5F8880066
:1029A000E06BB0F1805F03D1E86840F48030E8600C
:1029B0003046BDE8F883000000100240007000407F
:1029C0002DE9F0470E4605004FF0000725D0DFF84F
:1029D000AC81D8F8000000F00F00B0420CD2D8F85B
:1029E000001021F00F013143C8F80010D8F80000A2
:1029F00000F00F00B04210D12968614CC80741F2C5
:102A0000883A5AD06868DFF87C91032808D00228F9
:102A100020682DD0400500282CDB0120BDE8F08780
:102A200020688001F9D5E06800F00302E068C0F397
:102A30000310401C032A19D0534A00BFB2FBF0F028
:102A4000E268C2F306225043E268C2F34162521CBC
:102A50005200B0FBF2F0484517D9A06810F0F00F13
:102A60000CD0880711D5A86840B10EE0474AE5E7C9
:102A70008003D0E700F0B6F8484506D9A06820F0FA
:102A8000F00040F08000A0608027A068696820F016
:102A900003000843A060FFF74DFD814606E000BF3C
:102AA000FFF748FDA0EB090151453AD8A0686968D5
:102AB00000F00C00B0EB810FF2D12868810714D52B
:102AC000400703D5A06840F4E060A06028780007C4
:102AD00005D5A06820F4605040F4E060A060A068D4
:102AE000A96820F0F000084304E0802F03D1A0681B
:102AF00020F0F000A060D8F80010404601F00F016F
:102B0000B14216D9016821F00F0131430160FFF78E
:102B100011FD074607E000BFFFF70CFDC11B514543
:102B200001D903207AE7D8F8000000F00F00B04286
:102B3000F2D12878400705D5A068E96820F4E06064
:102B40000843A0602878000706D5A068296920F40A
:102B5000605040EAC100A06000F044F8A1680C4A4F
:102B6000C1F30311515C01F01F01C840094908601D
:102B700009480068BDE8F047FFF7FABC00200240B2
:102B80000010024000B4C4040024F40000127A00D3
:102B9000C45A000804000020080000200548064927
:102BA00000688968054AC1F30221515C01F01F01E8
:102BB000C84070470400002000100240D45A0008AA
:102BC0000548064900688968054AC1F3C221515C7D
:102BD00001F01F01C84070470400002000100240AF
:102BE000D45A0008184910B58868C0F38102174804
:102BF000012A0BD08A684310C2F38102022A06D050
:102C00008A68C2F38102032A03D0002010BD18464F
:102C100010BDCA6802F00304CA68C2F30312521C52
:102C2000032C02D0B0FBF2F001E0B3FBF2F0CA6873
:102C3000C968C2F306225043C1F34161491C4900EF
:102C4000B0FBF1F010BD0000001002400024F400C1
:102C50002DE9F84304007AD02078FA4DC00747D018
:102C6000A868E96800F00C0001F003010C2802D00C
:102C7000082817D001E0032914D06068B0F5803F20
:102C800017D0B0F5A02F286817D020F48030286026
:102C9000286820F4802028606068E0B1FFF74AFCD3
:102CA000064614E02868800322D560680028D2D048
:102CB0001EE0286840F48030EDE740F48020286072
:102CC000F7E700BFFFF736FC801B642870D8286840
:102CD0008003F7D50CE0FFF72DFC064605E000BFAA
:102CE000FFF728FC801B6428F0D828688003F7D4FD
:102CF000207880074CD5A868E96800F00C0001F046
:102D000003010C2802D004280DD001E002290AD0CA
:102D1000E068002828682BD040F480702860FFF716
:102D200009FC064619E02868400502D5E06800283D
:102D300091D06868217C20F0FE4040EA0160686024
:102D4000C1480068FFF714FC002800D120E076E1BC
:102D5000FFF7F0FB801B0228B8D828684005F7D59C
:102D60006868217C20F0FE4040EA016068600FE066
:102D700020F480702860FFF7DDFB064605E000BF09
:102D8000FFF7D8FB801B0228A0D828684005F7D49D
:102D90002078000729D560690028D5F8940013D061
:102DA00040F00100C5F89400FFF7C4FB064606E0BA
:102DB00090E000BFFFF7BEFB801B022886D8D5F845
:102DC00094008007F6D510E020F00100C5F89400CB
:102DD000FFF7B0FB064604E0FFF7ACFB801B0228C0
:102DE00078D8D5F894008007F6D42078400761D5CC
:102DF000A86D0026C00008D4A86D40F08050A865DA
:102E0000A86D012600F08050009090480168C90527
:102E100011D40168804641F480710160FFF78AFB9C
:102E2000074604E0FFF786FBC01B022852D8D8F8FB
:102E30000000C005F6D5A068012815D00528D5F8F2
:102E4000900016D020F00100C5F89000D5F8900051
:102E500020F00400C5F89000A06841F28838B8B1AD
:102E6000FFF768FB07460EE0D5F8900040F0010040
:102E7000F0E740F00400C5F89000F5E7FFF75AFBD3
:102E8000C11B414526D8D5F890008007F6D50CE047
:102E9000FFF750FB074604E0FFF74CFBC11B414521
:102EA00018D8D5F890008007F6D41EB1A86D20F090
:102EB0008050A8652078800629D5A0690028D5F81B
:102EC000980013D040F00100C5F89800FFF732FBDE
:102ED000064606E077E000BFFFF72CFB801B0228C8
:102EE00077D8D5F898008007F6D510E020F00100DB
:102EF000C5F89800FFF71EFB064604E0FFF71AFB33
:102F0000801B022865D8D5F898008007F6D4E069C0
:102F1000F0B3A968C1F38101032961D002282868B0
:102F200020F0807028600BD0E86820F00300E86093
:102F3000E86847490840E860FFF7FCFA04464BE0C0
:102F4000FFF7F8FA064604E0FFF7F4FA801B0228C0
:102F50003FD828688001F7D4F4E908016FF00F0228
:102F600002EB01110843218A5204490802EB415146
:102F7000A26841EA02210843217D4FF07E424908C0
:102F800002EB41610843217B40EAC160E96800E04F
:102F900062E0304A11400843E860286840F08070E1
:102FA0002860E86840F08070E860FFF7C3FA0446E4
:102FB00005E000BFFFF7BEFA001B022809D8286809
:102FC0008001F7D548E004E0FFF7B4FA001B0228BF
:102FD00002D90320BDE8F88328688001F4D43BE0DF
:102FE0000128F7D0E868226A00F00301914226D157
:102FF000616A00F0F0020901103991421FD1A26A02
:1030000000F4FE41B1EB022F19D194F82C2000F00E
:103010007841B1EBC26F12D1218E00F4C002490891
:103020004905A1F50011914209D194F8341000F03E
:10303000C06049084906A1F1007181420CD001200D
:10304000C8E70000001002400800002000700040A7
:10305000FFFFEEFE0C809F010020BBE710B5401E75
:10306000B0F1807F01D3012010BD4FF0E0246061FA
:103070000F21601702F0DCFA0020A0610720206118
:10308000002010BD7047704770470000F0B590F801
:103090003C20012A4AD0012280F83C20CA688B6873
:1030A00022F440721A434B6822F480621A430B6880
:1030B00022F400621A430B6922F480521A434B69CE
:1030C00022F400521A430B6B22F480421A430B8BFA
:1030D00022F4702242EA0342154C03680026154D83
:1030E000A34201D0AB4203D1CF6922F080523A43D0
:1030F000A34201D0AB4214D10F8D22F4700242EAF8
:1031000007520F6A22F080723A434F6A22F000722F
:103110003A43A34201D0AB4203D1C96A22F0005224
:103120000A435A6480F83C600020F0BD0220F0BDE4
:10313000002C01400034014070470068416D41F4AB
:10314000003141650020704770477047F0B590F836
:103150003C20012A3AD0012580F83C50022280F818
:103160003D2003685A689C68194E1A4FB34201D03B
:10317000BB4204D122F4700C4A6842EA0C02DFF828
:1031800058C002EA0C02D1F800C04CEA020CC3F8A5
:1031900004C00268B2420DD0B2F1804F0AD00F4B8A
:1031A0009A4207D00E4B9A4204D0BA4202D00D4B3D
:1031B0009A4204D1896824F080031943916080F811
:1031C0003D50002180F83C100846F0BD0220F0BDC3
:1031D000002C0140003401408FFFFFFD000400403F
:1031E000000800400040014010B50446022249B1E9
:1031F00004290ED0082913D094F84700012816D0CE
:10320000012010BD94F844000128F9D184F844202D
:103210000FE094F845000128F2D184F8452008E039
:1032200094F846000128EBD184F8462001E084F8A8
:1032300047200422206801F098FB2068416C41F48B
:10324000004141641049206888420ED0B0F1804F9F
:103250000BD00E49884208D00D49884205D00D494F
:10326000884202D00C49884207D181680B4A11403C
:10327000062906D0B1F5803F03D0016841F0010175
:103280000160002010BD0000002C0140000400403F
:1032900000080040003401400040014007000100E8
:1032A000704710B5040003D094F83D0010B107E05A
:1032B000012010BD002084F83C00204600F022F8D8
:1032C000022084F83D00211D206801F0E9FA012068
:1032D00084F8480084F83E0084F83F0084F84000F9
:1032E00084F8410084F8420084F8430084F84400E4
:1032F00084F8450084F8460084F8470084F83D00CF
:10330000002010BD08B51A4A01681A48914207D139
:10331000016E41F400610166006E00F400601BE084
:10332000154A91420ED1816D41F010018165806D89
:10333000002200F01000009002213620FFF764F90F
:10334000362010E00D4A914211D1016E41F48031D6
:103350000166006E00F480300022009011461820B3
:10336000FFF752F91820BDE80840FFF73FB908BD44
:10337000002C0140001002400010004000400140BD
:1033800090F83D10012901D001207047022180F8FA
:103390003D1000680F4988420ED0B0F1804F0BD02D
:1033A0000D49884208D00D49884205D00C49884211
:1033B00002D00C49884207D181680B4A1140062986
:1033C00006D0B1F5803F03D0016841F001010160F2
:1033D00000207047002C014000040040000800401D
:1033E00000340140004001400700010090F83D100A
:1033F000012901D001207047022180F83D100168A9
:10340000CA6842F00102CA600068104988420ED0C2
:10341000B0F1804F0BD00E49884208D00D49884248
:1034200005D00D49884202D00C49884207D18168F5
:103430000B4A1140062906D0B1F5803F03D0016840
:1034400041F001010160002070470000002C0140A4
:1034500000040040000800400034014000400140EA
:103460000700010070B5044690F83C0000250128D3
:1034700014D0012684F83C60022084F83D002268C4
:103480009068364B184020F47F40906008687028A0
:103490002ED010DC10F00F0F03D021E04FF002000F
:1034A00070BD4FEA2012072A1AD2DFE802F052520A
:1034B00052524A3840002A4BC21A984249D009DC7D
:1034C000B0F5805F0DD0B0F5005F1CD0B0F1101FDB
:1034D00006D13EE0102A3CD0202A3AD0502A38D0DB
:1034E000012584F83D60002084F83C00284670BD2A
:1034F000CB68D1E90121206801F044FA2068816895
:1035000041F0770109E0CB68D1E90121206801F0A1
:1035100039FA2068816841F480418160E1E7CA6836
:103520004968206801F0D8FB5021206806E0CA688D
:103530004968206801F0E1FB6021206801F02CFA65
:10354000CFE7CA684968206801F0C6FB40212068BF
:10355000F4E7226801461046F0E7000088FFCEFF3E
:1035600020001000704770B50446006801694FF0F4
:103570000005C943890715D4C168C943890711D417
:10358000E91E0161012020772068806980072046BC
:1035900002D0FFF7E7FF04E000F038F9204600F022
:1035A000FAF9257720680169C943490717D4C1682A
:1035B000C943490713D46FF0040101610220207749
:1035C0002068806910F4407F204602D0FFF7CAFFD0
:1035D00004E000F01BF9204600F0DDF925772068B3
:1035E0000169C943090716D4C168C943090712D440
:1035F0006FF008010161042020772068C06980070E
:10360000204602D0FFF7AEFF04E000F0FFF82046AE
:1036100000F0C1F9257720680169C943C90617D4AC
:10362000C168C943C90613D46FF0100101610820B5
:1036300020772068C06910F4407F204602D0FFF751
:1036400091FF04E000F0E2F8204600F0A4F92577AD
:1036500020680169C943C90708D1C168C943C907BE
:1036600004D1891E0161204600F014FA2068016926
:10367000C943090609D4C168C943090605D46FF0D6
:10368000800101612046FFF7FEFC20680169C94303
:10369000C90509D4C168C943090605D46FF480710E
:1036A00001612046FFF7EEFC20680169C943490625
:1036B00009D4C168C943490605D46FF040010161CE
:1036C000204600F0E8F920680169C943890609D459
:1036D000C168C943890605D46FF020010161204605
:1036E000FFF7D2FC20680169C943C90209D4C16847
:1036F000C943C90205D46FF4801101612046FFF768
:1037000023FD20680169C943890209D4C168C943FE
:10371000890205D46FF4001101612046FFF70CFD0A
:1037200020680169C943490209D4C168C9434902F3
:1037300005D46FF4800101612046FFF706FD206883
:103740000169C94309020BD4C168C943090207D4FE
:103750006FF4000101612046BDE87040FFF7A0BD95
:1037600070BD000070B586B0044614216846FCF7B1
:1037700099FD2249206888423DD12148C16C41F021
:103780000401C164C16C01F004010591C16C41F0F8
:103790000201C164C16C01F002010591C16C41F0EC
:1037A0000101C164C06C022500F0010005904FF4D6
:1037B000005000900024CDE901540420CDE90340DD
:1037C00069461048FEF780FD03200090CDE90154C2
:1037D0000626CDE9034669460B48FEF775FD4FF412
:1037E000E0600090CDE90154CDE9034669464FF011
:1037F0009040FEF769FD06B070BD0000002C01404E
:10380000001002400008004800040048704770B5EE
:10381000044690F83C0000260D4601280BD00120FC
:1038200084F83C000C2A4AD007DC82B1042A20D05C
:10383000082A06D131E0022070BD102A53D0142A84
:1038400063D00126002084F83C00304670BD20681B
:1038500001F0ACF82068816941F0080181612068BD
:10386000816921F004018161206881692A6911431D
:1038700011E0206801F0E8F82068816941F40061F6
:1038800081612068816921F480618161206881699A
:103890002A6941EA02218161D4E7206801F01CF91C
:1038A0002068C16941F00801C1612068C16921F047
:1038B0000401C1612068C1692A69114311E02068CF
:1038C00001F052F92068C16941F40061C1612068CA
:1038D000C16921F48061C1612068C1692A6941EA36
:1038E0000221C161AEE7206801F086F92068016D10
:1038F00041F0080101652068016D21F004010165B6
:103900002068016D2A69114311E0206801F0ACF9CB
:103910002068016D41F4006101652068016D21F4AA
:10392000806101652068016D2A6941EA0221016513
:1039300088E710B5040003D094F83D0010B107E00B
:10394000012010BD002084F83C00204600F022F841
:10395000022084F83D00211D206800F0A1FF012015
:1039600084F8480084F83E0084F83F0084F8400062
:1039700084F8410084F8420084F8430084F844004D
:1039800084F8450084F8460084F8470084F83D0038
:10399000002010BD7047704730B50446022269B15F
:1039A000042912D0082917D00C291CD0102921D0A5
:1039B00094F84300012824D0012030BD94F83E0043
:1039C0000128F9D184F83E201DE094F83F00012839
:1039D000F2D184F83F2016E094F840000128EBD1A2
:1039E00084F840200FE094F841000128E4D184F8E5
:1039F000412008E094F842000128DDD184F84220FB
:103A000001E084F843200122206800F0A1FF194B57
:103A100020681949194A984209D0884207D0904233
:103A200005D0174DA84202D0164DA84203D1456CCF
:103A300045F400454564206898420CD0B0F1804FB1
:103A400009D0114B984206D0104B984203D08842BF
:103A500001D0904207D181680D4A1140062906D055
:103A6000B1F5803F03D0016841F001010160002001
:103A700030BD0000002C01400034014000400140F6
:103A8000004401400048014000040040000800409C
:103A9000070001007047704790F88010012918D086
:103AA000012180F880102421C0F8841050F8641B94
:103AB0000A680B6823F001030B6022F0005100221A
:103AC000026050F8643C19602021016202771046C0
:103AD0007047022070477047704770B5044690F8F1
:103AE000800001281DD0012084F880002420C4F823
:103AF000840020680568026822F0010202602068E4
:103B0000826822F060620A438260204601F008F970
:103B1000206805602020C4F88400002084F880001C
:103B200070BD022070BD70B5044690F88000012879
:103B30001DD0012084F880002420C4F8840020686F
:103B40000568026822F0010202602068826822F0A3
:103B500060420A438260204601F0E2F82068056076
:103B60002020C4F88400002084F8800070BD02206A
:103B700070BD7047704770472DE9F04103680446F7
:103B8000D86919689A6840F60F0528424FF0000579
:103B900009D186067ED501F0200602F080573E430B
:103BA00078D0216F27E1A94EA94F16400F40374327
:103BB00070D0C70709D0CF0507D501271F62D4F8F9
:103BC0008C3043F00103C4F88C3083070AD5D30747
:103BD00008D0276802233B62D4F88C3043F00403FA
:103BE000C4F88C3043070AD5D30708D027680423CC
:103BF0003B62D4F88C3043F00203C4F88C300307E6
:103C00000CD501F02003334308D026680823336223
:103C1000D4F88C3043F00803C4F88C3003050BD57E
:103C20004B0109D526684FF400633362D4F88C3019
:103C300043F02003C4F88C30D4F88C30002B3AD0F9
:103C4000800609D501F0200002F08051084303D01E
:103C5000216F09B120468847D4F88C002168896813
:103C6000490602D410F0280F27D0204601F090F921
:103C70002068806840061BD52068083050E8001F87
:103C800021F0400140E80012002AF5D1E06F78B140
:103C9000704900E017E08163E06FFEF7C8F9002883
:103CA00009D0E06F816B00E02046BDE8F041084795
:103CB0002046FFF760FFBDE8F0812046FFF75BFF7D
:103CC000C4F88C50F7E7E76E2026012F7ED1C70697
:103CD0007CD5CF067AD5102018622068806840060F
:103CE00042D5E16F086840680004000CE3D0B4F8E6
:103CF0005C208242DFD9A4F85E0008680068800674
:103D00002BD4206850E8001F21F4807140E8001295
:103D1000002AF6D12068083050E8001F21F0010188
:103D200040E80012002AF5D12068083050E8001F52
:103D300021F0400140E80012002AF5D1C4F8886063
:103D4000E566216851E8000F20F0100041E800020C
:103D5000002AF6D1E06FFEF735F9B4F85C00B4F84C
:103D60005E10401A81B22CE0B4F85C00B4F85E102A
:103D7000401A81B2B4F85E0000289CD000299AD085
:103D8000226852E8000F20F4907042E80003002BF4
:103D9000F6D12E4BDB432068083050E8002F1A4044
:103DA00040E80027002FF6D1C4F88860E566256753
:103DB000226852E8000F20F0100042E80003002BB8
:103DC000F6D12046FFF787FE75E7FFE7C70209D562
:103DD000570207D54FF4801018622046BDE8F04125
:103DE000FFF7C8BE03060AD501F0800302F4000203
:103DF000134304D0616F00297FF456AF5BE742069E
:103E000011D54A060FD52046016851E8002F22F04F
:103E1000400241E80023002BF6D1C0F884604567DA
:103E200000F068F947E7020206D54A0004D52046AB
:103E3000BDE8F041FFF79DBEC001C5D50029C3DA3A
:103E40002046BDE8F041FFF747BE0000010000102A
:103E5000200100048D4E000810B5040003D0D4F8F2
:103E6000840010B107E0012010BD002084F880001C
:103E7000204600F027F82420C4F884002068016858
:103E800021F001010160204601F0C4F80128EBD0C7
:103E9000A06A10B1204600F065FF2068416821F457
:103EA000904141602068816821F02A01816020688A
:103EB000016841F0010101602046BDE8104000F0BA
:103EC000B5BF00002DE9F04397B00646142111A8B4
:103ED000FCF7E8F944216846FCF7E4F93A49306810
:103EE00088426DD101200025CDE900056846FEF726
:103EF00023FC08B1FCF747FE3448016E41F48041D1
:103F00000166016E01F480411691C16C41F004011B
:103F1000C164C16C01F004011691C16C41F0020151
:103F2000C164C06C4FF01009022400F00200CDF80B
:103F30004490CDE912454FF007081495CDE915805E
:103F400011A92348FEF7C0F9CDE91458802711972D
:103F5000CDE9124511A91F48FEF7B6F91F4C1E48BE
:103F600020601820C4E90105C4E903576561A56113
:103F7000E56120462562FEF7F3F808B1FCF703FE81
:103F8000F467A662154C1448603414302060C4E90C
:103F900003576561A561E56119202562C4E901093E
:103FA0002046FEF7DDF808B1FCF7EDFDB46700220E
:103FB00003212520A662FEF727FB2520FEF716FB2E
:103FC00017B0BDE8F0830000003801400010024047
:103FD0000008004800040048080002407004002067
:103FE00030B4D0F88830202B20D1E1B1DAB190F88C
:103FF0008030012B1AD0012380F880300023C36663
:104000000B4C0368A3420BD05B681B0208D5046805
:1040100054E8003F43F0806344E80035002DF6D1BA
:1040200030BC01F031B9012030BC70470220FBE701
:1040300000800040704770472DE9F8430446D0F8EF
:1040400084001F4616460D46202851D1DDB1D6B159
:1040500094F8800001284BD0012084F880004FF0B4
:104060000008C4F88C802120C4F884001834FEF7BE
:1040700061FAA6878146E68754F8100C183CB0F523
:10408000805F03D004E00120BDE8F883206920B1FF
:104090002E46002584F8808010E00026FAE7802173
:1040A000204601F043F9B8B9C6B116F8010B2168F2
:1040B0008862B4F85600401EA4F85600B4F85600C2
:1040C0004B464FF0000200970028E8D14FF0400126
:1040D000204601F02BF930B10320D5E735F8020B6B
:1040E000C0F30800E3E72020C4F884000020CBE7F9
:1040F0000220C9E77047FEE710B54FF09044002258
:1041000020212046FEF711FA00F017F80122402185
:104110002046FEF70AFA00F010F80022402120465F
:10412000FEF703FA00F009F8012220212046FEF7ED
:10413000FCF9BDE81040AFF300804F20401E80B274
:10414000FCD2704700F094B810B54FF090440122B3
:1041500020212046FEF7E9F9FFF7EFFF0122402179
:104160002046FEF7E2F9FFF7E8FF00224021204653
:10417000FEF7DBF9BDE81040FFF7DFBF2DE9F041A6
:104180000024074625464FF0904601224021304644
:10419000FEF7CBF96006040EFFF7CFFF2021304673
:1041A000FEF7B6F908B1641CE4B2002240213046A3
:1041B000FEF7BBF9FFF7C1FF6D1CEDB2082DE4D38C
:1041C00017B1FFF799FF01E0FFF7BEFF2046BDE8FA
:1041D000F08170B505464FF09046002240213046F0
:1041E000FEF7A3F9FFF7A9FF0024280601D5012255
:1041F00000E0002220213046FEF797F9FFF79DFFEF
:10420000012240213046FEF790F9FFF796FF002289
:1042100040213046FEF789F96806641C050EE4B2B9
:10422000082CE2D33046BDE8704001222021FEF781
:104230007CB910B54FF09044012220212046FEF7B2
:1042400074F9012240212046FEF76FF9FFF775FF50
:10425000002220212046FEF768F9FFF76EFF0022BA
:1042600040212046FEF761F9BDE81040FFF765BF29
:1042700010B54FF09044002220212046FEF755F95A
:10428000012240212046FEF750F9FFF756FF012298
:1042900020212046FEF749F9BDE81040FFF74DBF49
:1042A00070B500244FF0904625460122202130466B
:1042B000FEF73BF9FFF741FF012240213046FEF7B0
:1042C00034F9FFF73AFF07E0641CE4B2FA2C03D993
:1042D000FFF7CEFF012505E020213046FEF718F953
:1042E0000028F1D1002240213046FEF71EF9FFF7E9
:1042F00024FF284670BD00EB8100006E00F0F840FE
:10430000704700EB8100006E00F0F8407047806855
:10431000C0F3C00070478068C0F3C0007047806879
:10432000C0F3800070478068C0F380007047C068A9
:1043300010F4406F01D00020704701207047042323
:1043400003EAD15310B518444369C1F3045107245B
:104350008C40A3438A401343436110BD042303EA06
:10436000D15310B518444369C1F3045107248C405C
:10437000A3438A401343436110BD00EB8100016EEB
:1043800021F0004111430166704700EB8100016E8E
:1043900021F0004111430166704700002DE9F04112
:1043A0009AB000241794189420210FA81994FBF7B1
:1043B00079FF3C216846FBF775FF32484FF0A0417A
:1043C000042501604FF44031C0E9011485614FF0CC
:1043D0000108C460C0E9044804774477C0F820802D
:1043E00080F82440C462046380F83840C46380F8D5
:1043F0004040FDF7A5FC08B1FCF7C5FB17A9214813
:104400001794FDF7F1F808B1FCF7BDFB1E4E10A99B
:1044100006207F270F9681E89100CDE913540FA95C
:104420001848FDF74BF908B1FCF7ADFB0920CDE9C1
:10443000006002200890CDE904548420CDE9028771
:104440000A908DF8244080208DF825400B908DF83F
:1044500026408DF8304069460A48FCF749FD08B10E
:10446000FCF791FB0948009040F20F10019069465B
:104470000448FCF73DFD002801D0FCF784FB1AB08E
:10448000BDE8F081900200200200300404006008C2
:10449000114808B5816C41F004018164816C01F020
:1044A00004010091816C41F001018164806C002263
:1044B00000F00100009011460B20FEF7A5F80B203C
:1044C000FEF794F8002211460C20FEF79DF8BDE897
:1044D00008400C20FEF78AB8001002402DE9F04198
:1044E00086B014216846FBF7DDFE3248C16C41F00E
:1044F0000401C164C16C01F004010591C16C41F07B
:104500002001C164C16C01F020010591C16C41F032
:104510000101C164C16C01F001010591C16C41F060
:104520000201C164C06C4FF0904700F0020005909A
:10453000012260213846FDF7F8FF0122DFF878807C
:10454000D60331464046FDF7F0FF2020009001AA37
:1045500011200124032582E8310069463846FDF721
:10456000B3FE4020CDE9000469463846CDE9024556
:10457000FDF7AAFE4FF4E04000904FF40410002530
:10458000CDE9010569464046FDF79EFE0096CDE95E
:104590000145694640460395FDF796FE002201213C
:1045A0002820FEF731F82820FEF720F806B0BDE8F5
:1045B000F0810000001002400004004810B588B0EF
:1045C00000241848009401940294039404940594E0
:1045D000134906940160A721C0E901146321C0E9D1
:1045E00003148021C0E90541FEF75BFE08B1FCF72A
:1045F000CAFA4FF48050009069460A48FEF732FF2D
:1046000008B1FCF7C0FA049404A906480694FEF722
:104610009DFD002801D0FCF7B6FA08B010BD0000DF
:10462000004001409403002010B59CB00024199470
:104630001A9417941894149415941C21684616948F
:10464000FBF730FE342107A8FBF72CFE3C483B4922
:10465000C0E900142021816041F26801C0E903141F
:104660008021C0E90541FEF71CFE08B1FCF78BFA7A
:104670004FF48050179017A93148FEF7F3FE08B1A8
:10468000FCF781FA2E48FFF754F908B1FCF77BFAE2
:104690001494159414A92A481694FEF757FD08B1EE
:1046A000FCF771FA6020CDE900040820CDE9024052
:1046B0000420CDE904040022694621480694FFF74E
:1046C000A6F808B1FCF75FFA042269461C48FFF718
:1046D0009EF808B1FCF757FA082269461848FFF718
:1046E00096F808B1FCF74FFA0C2269461448039477
:1046F000FFF78DF808B1FCF746FA1148FEF71DFDEB
:10470000079407200894CDE909404FF40050CDE903
:104710000B400D9400030E94CDE90F4011941294B8
:1047200007A907481394FEF7B1FC08B1FCF72BFA70
:104730000348FFF717F81CB010BD0000002C014023
:10474000FC0200203EB500240E48009401940C4960
:104750000294C0E9001440F28F61C0E90241846113
:10476000FEF79FFD08B1FCF70EFA00946946054874
:104770000294FEF7EBFC002801D0FCF704FA3EBDE2
:104780000010004048030020174810B5154901608B
:1047900016494160002181600C22C160C0E9041209
:1047A0008161C161016241628162FFF755FB08B11D
:1047B000FCF7E9F900210C48FFF7B5F908B1FCF75F
:1047C000E2F900210848FFF788F908B1FCF7DBF9A6
:1047D0000548FFF761F9002803D0BDE81040FCF759
:1047E000D2B910BD00380140E003002080841E00D3
:1047F000FEE7704770477047FDF7A2BE10B594B052
:1048000038216846FBF74EFD14210EA8FBF74AFD40
:104810000020FDF72BFF01210804CDE9001003243F
:10482000CDE9084102202A21CDE90A1007900C9019
:104830000D906846FEF70CFA0F20CDE90E0400201B
:1048400010901190129004210EA8FEF7B9F814B040
:1048500010BD00000548016841F470010160034982
:104860004FF00060803908607047000088ED00E07C
:1048700010B50548FEF777FE0448FEF774FEBDE864
:1048800010400348FCF7D0B8FC020020940300203D
:10489000140000200148FEF766BE00004803002017
:1048A0002DE9F0430268234B234D244E244C4FF056
:1048B0008049984207D0484505D0A84203D0B0426D
:1048C00001D0A04203D122F070074A683A431D4F3D
:1048D000DFF874C0DFF8748098420DD048450BD0E3
:1048E000A84209D0B04207D0A04205D0B84203D0B8
:1048F000604501D0404503D122F44075CA682A437F
:104900004D6922F080022A4302608A68C2620A6806
:104910008262984207D0A04205D0B84203D06045D9
:1049200001D0404501D10969016301214161BDE820
:10493000F0830000002C014000040040000800400B
:104940000034014000400140004401400048014063
:1049500010B501F01F030121046A99408C430462E1
:10496000016A9A401143016210BD10B501F01F03A6
:104970000421046A99408C430462016A9A401143FD
:10498000016210BD10B5846842EA032224F47F441A
:104990000A432243826010BD8268034B1A400A43D7
:1049A00042F00701816070478FFFCFFF2DE9F04390
:1049B000026A22F001020262056A436882691C4CA5
:1049C00025F0020522400C6822F0030214438A6895
:1049D000194E2A43174D194FDFF864C0DFF8649071
:1049E000A84207D0B04205D0B84203D0604501D0FC
:1049F000484506D122F00808CA6842EA080222F0B7
:104A00000402A84207D0B04205D0B84203D06045A6
:104A100001D0484505D14D6923F440731D438B698E
:104A20002B4343608461496841630262BDE8F083BF
:104A30008FFFFEFF002C0140003401400040014088
:104A40000044014000480140F0B5026A22F0100223
:104A50000262056A42688369194C1B4E23400C6848
:104A600023F4407343EA042425F020038D6843EACD
:104A70000513144DA84201D0B04206D1CF6823F0EF
:104A8000800343EA071323F04003A8420AD0B04250
:104A900008D00E4DA84205D00D4DA84202D00D4DB4
:104AA000A84207D14D6922F4406242EA85028D692D
:104AB00042EA850242608461496881630362F0BD15
:104AC000FF8FFFFE002C01400034014000400140F8
:104AD0000044014000480140F0B5026A22F48072AF
:104AE0000262056A4368C269194C1B4E22400C6879
:104AF00022F00302144325F400728D6842EA052275
:104B0000144DA84201D0B04206D1CF6822F4006211
:104B100042EA072222F48062A8420AD0B04208D0BA
:104B20000E4DA84205D00E4DA84202D00D4DA84210
:104B300007D14D6923F4405343EA05138D6943EAD5
:104B400005134360C4614968C1630262F0BD00009F
:104B50008FFFFEFF002C0140003401400040014067
:104B60000044014000480140F0B5026A22F480523E
:104B70000262056A4268C369194C1B4E23400C68E7
:104B800023F4407343EA042425F400538D6843EA78
:104B90000533144DA84201D0B04206D1CF6823F4AA
:104BA000004343EA073323F48043A8420AD0B042CB
:104BB00008D00E4DA84205D00D4DA84202D00D4D93
:104BC000A84207D14D6922F4404242EA85128D691C
:104BD00042EA85124260C461496801640362F0BD23
:104BE000FF8FFFFE002C01400034014000400140D7
:104BF000004401400048014030B5026A22F480328E
:104C00000262046A4268036D114D2B400D681D431A
:104C100024F400330C8943EA04430E4CA0420BD029
:104C20000D4CA04208D00D4CA04205D00C4CA04227
:104C300002D00C4CA04204D14C6922F4803242EAEA
:104C400004224260056549688164036230BD00004A
:104C50008FFFFEFF002C0140003401400040014066
:104C6000004401400048014030B5026A22F480123D
:104C70000262046A4268036D114D24F400142B4053
:104C80000D6843EA05230D8944EA05540D4DA842F9
:104C90000BD00D4DA84208D00C4DA84205D00C4DAC
:104CA000A84202D00B4DA84204D14D6922F48022C3
:104CB00042EA8522426003654968C164046230BDEE
:104CC000FF8FFFFE002C01400034014000400140F6
:104CD000004401400048014010B5036A046A24F012
:104CE00001040462846924F0F00444EA021423F00D
:104CF0000A020A438461026210BD10B5036A23F000
:104D0000100303628369046A23F4704343EA0232A6
:104D100024F0A00343EA01118261016210BD00008A
:104D200030B5416EB9B1026891689268C1F34261D1
:104D30000B4B520F9C5CE50003F10804A25CB5FB31
:104D4000F2F2A0F86A205A5C615CD200B2FBF1F189
:104D5000A0F8681030BD0121A0F86A10F8E7000043
:104D6000F45A000890F82810C90706D001684A686C
:104D7000C36A22F400321A434A6090F82810890767
:104D800006D501684A68036B22F480321A434A60F0
:104D900090F82810490706D501684A68436B22F449
:104DA00080221A434A6090F82810090706D5016846
:104DB0004A68836B22F400421A434A6090F8281034
:104DC000C90606D501688A68C36B22F480521A436B
:104DD0008A6090F82810890606D501688A68036CF5
:104DE00022F400521A438A6090F82810490611D51F
:104DF00001684A68436C22F480121A434A60416C8D
:104E0000B1F5801F06D101684A68836C22F4C002A4
:104E10001A434A6090F82810090606D501684A68C6
:104E2000C06C22F4002202434A607047F8B50026A5
:104E30000446C0F88C60FDF77DFB054620680068DD
:104E40006FF07E47000708D52B4600224FF4001173
:104E50002046009700F06AFA60B9206800684007B1
:104E60000AD52B4600224FF480012046009700F01F
:104E70005DFA08B10320F8BD2020C4F88400C4F80E
:104E8000880044F86C6F00202675F8BD10B5806A64
:104E90000021A0F85E10A0F85610FEF76CFE10BDC1
:104EA00070B5846AD4F88400D4F888502168896881
:104EB0004FF00006090606D5212804D1A4F8566053
:104EC000204600F08FF820688068400606D5222D25
:104ED00004D1A4F85E60204600F05AF8D4F88C00A3
:104EE00040F01000C4F88C002046FEF744FE70BD70
:104EF00010B50146806A0968096889062ED4002128
:104F0000A0F85E10016851E8002F22F4807241E899
:104F10000023002BF6D10168083151E8002F22F060
:104F2000010241E80023002BF5D10168083151E866
:104F3000002F22F0400241E80023002BF5D1202170
:104F4000C0F88810C16E012908D1026852E8001F1C
:104F500021F0100142E80013002BF6D1C16E0129A7
:104F600002D0FFF767F810BDB0F85C10FEF7B3FD94
:104F700010BD10B5806AC16E012902D0FFF75BF841
:104F800010BDB0F85C104908FEF7A5FD10BD00008B
:104F900010B5026852E8001F21F4907142E8001336
:104FA000002BF6D10E4B0268083252E8001F194060
:104FB00042E80014002CF6D1C16E012908D1016825
:104FC00051E8002F22F0100241E80023002BF6D117
:104FD0002021C0F888100021C166016710BD0000C3
:104FE000FEFFFFEF026852E8001F21F0C00142E817
:104FF0000013002BF6D10168083151E8002F22F48C
:10500000000241E80023002BF5D12021C0F88410D4
:10501000704700002DE9F04104460168806822696C
:10502000E3691043626900251A431043DFF82CC27C
:105030000A688B4B1A4002430A6020684168E268A4
:1050400021F44051114341602168A069614501D0BC
:10505000226A10438A68834B1A4002438A602068A0
:10506000C16A626A21F00F011143C1627E4923685F
:105070007E488B420DD1D0F8880010F0030006D096
:10508000012855D0022842D003283FD152E0012008
:105090003DE077498B420BD1D0F8880010F00C002E
:1050A00035D0042833D0082840D00C282ED141E038
:1050B00070498B420BD1D0F8880010F0300026D018
:1050C000102835D0202831D030281FD132E06A494D
:1050D0008B420BD1D0F8880010F0C00017D04028C8
:1050E00026D0802822D0C02810D123E063450DD1DE
:1050F000D0F8880010F4406009D0B0F5806F17D068
:10510000B0F5006F12D0B0F5406F13D010205B499E
:105110005B4F00264FF4004263453BD160B102284B
:1051200013D004280BD0082872D10DE00220EEE73E
:105130000420ECE70820EAE7FDF730FD01E0FDF789
:1051400051FD010001D17CE01146606A37F8102062
:105150006768B1FBF2F007EB4703834270D8B0EB0E
:10516000073F6DD8002308461946FBF751F809029E
:1051700041EA106102027808101871413A46002392
:10518000FBF746F83F4AA0F54071914258D8216894
:10519000C86056E0E3694FF6EF7893422CD10928B6
:1051A0004ED2DFE800F00508114D0D4D4D4D1000B9
:1051B000FDF7F4FC01E0FDF703FD010004D140E040
:1051C000FDF710FDF9E71146606A37F81000B1FBF2
:1051D000F0F04100606801EB5001B1FBF0F0A0F18C
:1051E000100141452CD84FF6F0710140C0F3420048
:1051F00001432068C16024E0092821D2DFE800F0E3
:10520000050912200E2020201100FDF7C7FC02E046
:1052100016E0FDF7D5FC010004D112E0FDF7E2FC39
:10522000F9E71146606A37F81000B1FBF0F16068E9
:1052300001EB5001B1FBF0F0A0F1100141450AD99A
:1052400001250120A4F86A0024F8680F2846A6600A
:10525000E660BDE8F08180B299E700000080004080
:10526000F369FFCFFFF4FF11003801400010024046
:105270000044004000480040004C00400024F4007E
:10528000DC5A0008FFFC0F0070B58165A0F85C20B7
:1052900000250446C0F88C502220C4F88800E06F36
:1052A000D8B11F49C162E16F1E4813460863E16F20
:1052B0001D484863E06F8563A66D2168324624313E
:1052C000E06FFCF7ADFF40B11020C4F88C0004F88B
:1052D000805F2020A060012070BD84F8805020698C
:1052E00040B1216851E8000F40F4807041E80002AD
:1052F000002AF6D12068083050E8001F41F0010173
:1053000040E80012002AF5D12068083050E8001F5C
:1053100041F0400140E80012002AF5D1002070BDA4
:10532000F14E0008734F0008A14E00082DE9F04728
:105330009A4617460E4604464FF000094FF02008E3
:10534000089D4AE0681C48D0FDF7F4F8A0EB0A007D
:10535000A8422AD84DB32068016849073DD5C069E5
:10536000C043000539D421684FF40060086220680A
:1053700050E8001F21F4D07140E80012002AF6D155
:105380002068083050E8001F21F0010140E80012B9
:10539000002AF5D144F8848FC4F80480C4F808804A
:1053A00004F8049C0320BDE8F087216851E8000F51
:1053B00020F4D07041E80002002AF6D120680830BD
:1053C00050E8001F21F0010140E80012002AF5D149
:1053D00044F8848FC4F80480E2E72068C06936EAA4
:1053E000000004D00020B842ACD00020DBE7012050
:1053F000F9E7000010B532210A4800F0CFF80A485A
:10540000FEF7BAFB084810210268116200680168C3
:1054100041F010010160BDE810403222014902480C
:10542000FEF7DEBDD4000020E0030020FEE7000010
:1054300018B5214900236A46CC18E479D4545B1C82
:10544000DBB2042BF8D31C4B903B01281AD0022866
:1054500017D100200C18E4791454401CC0B2042861
:10546000F8D39DED000A002083ED060A0C18E47ABB
:105470001454401CC0B20428F8D39DED000A83EDFB
:10548000070A18BD00200C18E4791454401CC0B25F
:105490000428F8D39DED000A002083ED040A0C18BF
:1054A000E47A1454401CC0B20428F8D39DED000ADD
:1054B00083ED050A18BD0000BC00002008B5054AB0
:1054C000002069461318DB790B54401CC0B2042835
:1054D000F8D308BDBC0000200D480179FE2915D184
:1054E0004179EF2912D18079010900F00F0007D02E
:1054F000012907D0022907D0032907D1FFF798BF58
:1055000000F01EB8FFF7DABF00F004B870470000E3
:10551000BC00002018B5094B00216A465C18E479EC
:105520005454491CC9B20429F8D3012805D10348B1
:105530009DED000A903880ED030A18BDBC000020E4
:1055400008B5054A002069461318DB790B54401C46
:10555000C0B20428F8D308BDBC00002030B5054611
:10556000042000EB810495B022460B496846FAF707
:1055700080FE0DEB0401002001F8040D4FF47A7356
:105580004870802088707F20C8702246694628466F
:10559000FEF752FD15B030BD6C0000202DE9F04340
:1055A0000025224C89B00F468146261DA84638E0CA
:1055B00019F805002070A1788855A078401CA070CB
:1055C0003220E0706078ED2817D12078DE2814D1E1
:1055D000164818221038D0E90810CDE900101349F8
:1055E00002A8FAF746FE0DF1080C9CE80F00FFF741
:1055F00073FF84F8018084F8028020786070A078BE
:1056000014280CD9414684F80280A0788155A078EE
:10561000401CC0B2A0701428F7D36170A1706D1C3B
:10562000EDB2BD42C4D309B0BDE8F083BC00002098
:105630000907090E002804DB00F1E02080F80014BF
:10564000704700F00F0000F1E02080F8141D704753
:1056500000B52DED048BB0EE418AF0EE618AB0EE1C
:10566000409AF0EE609A83B053EC182B51EC190B72
:10567000FBF730F800F07040B0F1005F1AD018EE80
:10568000101A18EE900A8DED008B002918BF012129
:10569000084320F00040C0F17F6000F1E040C00FFF
:1056A00001BFB0EE480AF0EE680A03B0BDEC048B0F
:1056B00008BF00BDB0EE490A03B0F0EE690ABDECC8
:1056C000048B00BD00B52DED048BB0EE418AF0EEE9
:1056D000618AB0EE409AF0EE609A83B053EC182BDA
:1056E00051EC190BFAF7F6FF00F07040B0F1004FE3
:1056F0001AD018EE101A18EE900A8DED008B0029C2
:1057000018BF0121084320F00040C0F17F6000F184
:10571000E040C00F01BFB0EE480AF0EE680A03B0E7
:10572000BDEC048B08BF00BDB0EE490A03B0F0EE3B
:10573000690ABDEC048B00BD02E008C8121F08C155
:10574000002AFAD170477047002001E001C1121F02
:10575000002AFBD17047D0ED000AF4EEC00AF1EE4A
:1057600010FA01DD80ED000AD0ED000AB1EE400A2A
:10577000F4EEC00AF1EE10FA01D280ED000A704793
:1057800070B5C2680261438801884FF400655C1AF5
:10579000AC4207DB1144C3F580521144C1608168FB
:1057A000491C09E0CE1AAE4208DBC1F5805119440C
:1057B000511AC1608168491E816070BD111BC160B2
:1057C00070BD0000FCF7C4FEFFF718F8FEF786FE78
:1057D000FEF75EFEFEF7E2FDFEF726FFFEF7D4FFC2
:1057E000FEF7B0FFFEF7EAFE3648FBF713FA36483D
:1057F0000068016841F010010160322233493248EB
:10580000FEF7EEFB3248FDF7F1FD3248FBF756FE9E
:10581000314941F2660008603048FDF7B1FD0021D2
:105820002E48FEF7B9F800212C48FDF7DDFC0421D5
:105830002A48FEF7B1F804212848FDF7D5FC0821D5
:105840002648FEF7A9F808212448FDF7CDFC0C21D5
:105850002248FEF7A1F81B4D9FED210A214C224E54
:10586000DFF8888085ED0D0A4FF4004795ED010AB9
:10587000092184ED010A96ED030A1348B8EEC00A27
:1058800084ED020A96ED050A84ED030A95ED0D0AF2
:1058900084ED040A95ED080A84ED050A95ED070AE2
:1058A00084ED060A95ED0C0A84ED070A95ED0B0AC6
:1058B00084ED080AFFF752FE39464046FCF72DFEFC
:1058C000D4E7000008010020E0030020D4000020FD
:1058D0009403002090020020402C0140FC02002094
:1058E0000AD7A33C6C0000201400002000040048EC
:1058F00000B530EEC01A80ED080AC0ED050A80ED53
:105900000B1AD0ED141A01469FED642A30EEC00A3E
:10591000F5EEC01AB1EE400AF1EE10FA0ED0B5EE77
:10592000C01AF1EE10FA02DDF0EE410A01E0F0EEED
:10593000400AF4EEE10AF1EE10FA12DCD1ED150A9C
:10594000F5EEC00AF1EE10FA0ED0B5EEC01AF1EE87
:1059500010FA01DDB0EE410AB4EEE00AF1EE10FA01
:1059600002D2B0EE420A00BD8A6D01F13400032A72
:1059700002D0042A33D070E091ED000A20EE010A33
:1059800081ED0C0A91ED0D0AD1ED010A00EE810ABC
:1059900081ED0D0A91ED0A0AD1ED020A31EE400ABD
:1059A00020EE200A81ED0E0A91ED180AFFF7D3FED2
:1059B00091ED0C0AD1ED0D0A01F13C0030EE200A08
:1059C000D1ED0E0A30EE200A81ED0F0A91ED170A93
:1059D000FFF7C1FE91ED0F0A81ED100A3DE091ED58
:1059E0000A0AD1ED001A71EE400A60EEA10AC1ED7B
:1059F0000C0AD1ED010A60EE810AC1ED0D0AF0EE4C
:105A0000000A00EE601A91ED090AD1ED020A31EEAA
:105A1000000A20EE200A81ED0E0A91ED180AFFF728
:105A20009AFE91ED0C0AD1ED0D0A01F1480030EE1D
:105A3000200AD1ED0E0A30EE200A81ED110AD1EDD7
:105A4000130A30EE800A81ED120A91ED170AFFF772
:105A500082FE91ED120A81ED130A91ED0A0A81EDA1
:105A6000090A91ED0B0A81ED0A0A91ED070A81ED11
:105A7000060A91ED080A81ED070A91ED040A81ED0D
:105A8000030A91ED050A81ED040A886D032802D00E
:105A900091ED120A00BD91ED0F0A00BD000000005B
:105AA000C0ED180A80ED170A816580EC031A704773
:105AB000C0ED180A80ED170A8165C0ED152A80EC4B
:105AC000031A7047000000000000000001020304F8
:105AD000060708090000000001020304010002009B
